:020000040000fa
:080000000002040000000000f2
:020000040000fa
:10000800aa130000aa130000aa130000aa130000f4
:10001800aa130000aa130000aa130000aa130000e4
:10002800aa130000aa130000aa130000540300003a
:10003800b6480000aa130000aa130000aa13000083
:10004800aa130000aa130000aa130000aa130000b4
:10005800aa130000aa130000be480000aa1300005b
:10006800aa130000aa130000aa1300006a0c0000db
:10007800aa130000aa130000aa130000aa13000084
:10008800aa130000aa130000aa130000aa13000074
:10009800aa130000aa130000aa130000aa13000064
:1000a800aa130000aa130000aa130000940200007b
:1000b800aa130000aa130000aa130000aa13000044
:1000c800aa130000aa130000aa130000aa13000034
:1000d800aa130000aa130000aa130000aa13000024
:1000e800aa130000aa130000aa130000aa13000014
:1000f800aa130000aa130000aa130000aa13000004
:10010800aa130000aa130000aa130000aa130000f3
:10011800aa130000aa130000aa130000aa130000e3
:10012800aa130000aa130000aa130000aa130000d3
:10013800aa130000aa130000aa130000aa130000c3
:10014800aa130000aa130000aa130000aa130000b3
:10015800aa130000aa130000aa130000aa130000a3
:10016800aa130000aa130000aa130000aa13000093
:10017800aa130000aa130000aa130000aa13000083
:10018800aa130000aa130000aa130000aa13000073
:10019800aa130000aa130000aa130000aa13000063
:1001a800aa130000aa130000aa130000aa13000053
:1001b800aa130000aa130000aa130000aa13000043
:1001c800aa130000aa130000aa130000aa13000033
:1001d800aa130000aa130000aa130000aa13000023
:1001e800aa130000aa130000aa130000aa13000013
:0801f800aa130000aa13000085
:020000040000fa
:10020800aa130000aa130000aa130000aa130000f2
:10021800aa130000aa130000aa130000aa130000e2
:10022800aa130000aa130000aa1300005403000038
:10023800b6480000aa130000aa130000aa13000081
:10024800aa130000aa130000aa130000aa130000b2
:10025800aa130000aa130000be480000aa13000059
:10026800aa130000aa130000aa1300006a0c0000d9
:10027800aa130000aa130000aa130000aa13000082
:10028800aa130000aa130000aa130000aa13000072
:10029800aa130000aa130000aa130000aa13000062
:1002a800aa130000aa130000aa1300009402000079
:1002b800aa130000aa130000aa130000aa13000042
:1002c800aa130000aa130000aa130000aa13000032
:1002d800aa130000aa130000aa130000aa13000022
:1002e800aa130000aa130000aa130000aa13000012
:1002f800aa130000aa130000aa130000aa13000002
:10030800aa130000aa130000aa130000aa130000f1
:10031800aa130000aa130000aa130000aa130000e1
:10032800aa130000aa130000aa130000aa130000d1
:10033800aa130000aa130000aa130000aa130000c1
:10034800aa130000aa130000aa130000aa130000b1
:10035800aa130000aa130000aa130000aa130000a1
:10036800aa130000aa130000aa130000aa13000091
:10037800aa130000aa130000aa130000aa13000081
:10038800aa130000aa130000aa130000aa13000071
:10039800aa130000aa130000aa130000aa13000061
:1003a800aa130000aa130000aa130000aa13000051
:1003b800aa130000aa130000aa130000aa13000041
:1003c800aa130000aa130000aa130000aa13000031
:1003d800aa130000aa130000aa130000aa13000021
:1003e800aa130000aa130000aa130000aa13000011
:0803f800aa130000aa13000083
:020000040000fa
:10040000afbf21000eff23000e0188000000000096
:1004100000012000200288000c000700c0f5250024
:100420000100200011000700000020000000e00093
:100430000200320000000200000000009e030200e3
:10044000000000000040da000000fe004440a90067
:10045000005020000000e0000300320000002000f7
:10046000a00188004440a800000006009101880017
:10047000800078000000eb0015003700e2804000ab
:1004800032a0b4009101ba00e280400032a0b40072
:100490009102ba00e280400032a0b4000002eb00fa
:1004a000472bde00f507b200602ce10004003a00a3
:1004b0000059eb008301e900fdff3e000400370016
:1004c0006128e100010032000082eb000400070017
:1004d0001101ba000200e000e8ff3a000000060047
:1004e0003159ba008301e9000c0032002159ba00e9
:1004f0008301e900080032000400e00003003a0034
:10050000e280400032a0b400f5ff370011d9ba00f4
:100510008301e900faff3a008100e800e180400031
:1005200032a0b40000000600801f7800849fbe0047
:100530000600fa008860a900542080006202620070
:10054000e00f5200540032000a24a9000521800067
:100550000410200004826200e00f520021003200eb
:10056000740482004822de007f4262000482fb00a5
:100570006622b9008402780004af210004824200a0
:10058000240798002e02900014029000140798008f
:100590000042eb00044f78000c0037001e4078004a
:1005a0000082fb00e60242000408240004824200ac
:1005b000144278009e029000844a78001e02900047
:1005c0000402e800140798001e4fe8002e02900075
:1005d000444290009e4f5200f0ff3e002104a900cb
:1005e0002d003700052180000420200004826200d5
:1005f000e00f520028003200a4b521001442780018
:10060000e04f520023003a006409240014427800ad
:100610000440780052fbb7007409240014427800ab
:100620000440780053fbb70084092400144278008a
:100630000440780054fbb700940924001442780069
:100640000440780055fbb700a40924001442780048
:100650000440780056fbb700b40924001442780027
:100660000440780057fbb700c40924001442780006
:100670000440780058fbb700d409240014427800e5
:100680000440780059fbb70014c0b3000440780060
:100690005afbb7002124a9000080fa004f02be00d7
:1006a0004f007800004006003600f800809fbe0032
:1006b000829fbe00849fbe00869fbe003400f8006b
:1006c00000002000a00188000c00fa008460a9004e
:1006d000cca2a8000e007800c32c07001e007800f2
:1006e0009e0090002e019000be0190004e029000ee
:1006f000de0290001e270700ea2b070094df80002f
:10070000e00f520004003200b01c0700e92c070083
:1007100000027800a4df8800cca2a9000080fa00c3
:100720003400f9004f03be004f02be004f01be006f
:100730004f00be003600f90000400600de01fa005e
:10074000889fbe000002eb00040f78000002eb005f
:10075000140798000002eb00240798000002eb0049
:10076000340798003b2e07005c2e0700d0a2a9009a
:10077000c8a2a9000400200005f8230034af9800a7
:1007800045af980004fd200095fc230054af98006d
:1007900065af98000400200005f8230074af9800ae
:1007a00005b7980004fd200095fc230014b79800bd
:1007b00025b79800b92607007eaa90008eb2900057
:1007c0001eb39000aeb390003ea89000cea890005b
:1007d0005ea99000eea99000631b07008814070033
:1007e000ab2c0700792b0700250507000002eb0062
:1007f00094df880002002000031224001000200073
:10080000972407009460a80010002000c525070069
:10081000d4a2a9001e027800e30f52005402320055
:10082000e30f520005003e00e10f5200820032004b
:10083000e10f5200a5013e0006003700e40f520010
:1008400093033200a40fb100e40f52001d043e00d8
:10085000090437001e0290009e027800848f520027
:10086000050032001e007800100798001e00780076
:10087000aa260700a9050700a4b5210014427800a4
:10088000e04f52006b00320024b521001442780082
:100890000482fb006123b900d4ff2f00f5ff2f0075
:1008a0000602420087824a00f6002000070020006e
:1008b000860f5200878f5a005b003e0004600100e3
:1008c0000f0037005800370010003700560037007f
:1008d00055003700540037005300370052003700ee
:1008e0005100370050003700220037002600370043
:1008f000310037003c0037004b003700060037005e
:1009000014002000040f7800470037004400200046
:10091000040f780044003700640e20000e024200ed
:1009200004007800fc2607009460a9003eb0900007
:10093000ceb090005eb19000eeb190007eb290001b
:100940008eba90003b2c0700e40c20000e024200ff
:1009500004007800162c07007ea090008ea890005e
:100960001ea99000aea99000461b07009460a80045
:100970002d00370034b52100144278000482fb00ba
:100980002407980028003700240c20000e024200a3
:10099000040078002a2707001ea09000aea0900057
:1009a0003ea19000cea190005ea29000eea2900029
:1009b0003b1507001c003700640b20000e024200ac
:1009c000040078001e2707003e989000ce98900003
:1009d0005e999000ee9990007e9a90008ea2900011
:1009e0008d15070010003700a40a20000e024200f7
:1009f00004007800122707005e909000ee909000af
:100a00007e9190008e9990001e9a9000ae9a900070
:100a1000ad19070000027800140f98001e0890001e
:100a200046260700000000000042eb00044078006a
:100a30005afbb700a60337001e0290009e02780002
:100a4000848f5200090032001e02780014079800bb
:100a50001e007800312607009460a9001a050700df
:100a60001400200094df88009460a800a4b5210041
:100a700014427800e04f52001301320024b52100e7
:100a8000144278000482fb00cfa2de002601200081
:100a900007002000860f5200878f5a0007013e0092
:100aa00004600100150037002400370003013700ff
:100ab000020137000e00370000013700ff00370049
:100ac0002e0037002d003700fc003700fb003700f8
:100ad000fa003700f9003700cb003700cf003700ad
:100ae000da003700e5003700f40037009f003700d8
:100af0000002eb00040f7800f0003700240f200004
:100b00000e02420004007800172707009460a90035
:100b10001eb89000aeb890003eb99000ceb99000db
:100b20005eba9000eeba90004d2907009460a800cc
:100b300024002000040f7800e0003700e40f2000bc
:100b40000e02420004007800512707009460a900bb
:100b50007eb890008e0091001e019100ae019100c0
:100b60003e029100ce029100622907009460a80025
:100b700024002000040f7800d0003700d4a2a80081
:100b80000002eb00340798009460a900241d2000a7
:100b90000e02420004007800932b0700241d200061
:100ba0000e024200650e20008e824200b41a7800c8
:100bb000a4127800e482420064024200b41a780071
:100bc000a4127800e482420064024200b41a780061
:100bd000a4127800e4824200640242009460a800fb
:100be000a41020000e024200040078004a260700ec
:100bf0005e029100ee02910018c0b3006011b800cf
:100c00000400be00f206070000027800e00f520068
:100c1000010035000044eb00e04f540011003200a9
:100c20005e029100ee02910005f0a20054079900c7
:100c3000650799007e0291008e0a910005f0a200de
:100c400074079900050f99001e0a9100ae0a9100e1
:100c500005f0a200140f9900250f99001400200040
:100c600034079800e51120008e824200a410200075
:100c70000e0242001403be00869fbe0064024200c2
:100c80001403be00869fbe00640242001403be002f
:100c9000869fbe0064024200050378003eb09000cb
:100ca000ceb090005eb19000eeb190007eb29000a8
:100cb0008eba900045190700ec87570000027800b3
:100cc00054079800de029000940f2000848f520099
:100cd000030034005e009000000f78002100370010
:100ce0005e029000e00f520003003a001400200062
:100cf000040f78001b00370024b52100144278004f
:100d0000e74f520003003a000002eb00640798002e
:100d10000200370014002000640798007eaa9000ab
:100d20008eb2900014bf980025bf98003eaa900094
:100d3000ceaa900034bf980045bf98001eb2900024
:100d4000aeb2900074bf9800050799005eaa9000ab
:100d5000eeaa90001407990025079900340020009e
:100d6000040f7800d4a2a90054003700241d2000ed
:100d70000e02420004007800e7250700241d200031
:100d80000e024200650e20008e824200b41a7800e6
:100d9000a4127800e482420064024200b41a78008f
:100da000a4127800e482420064024200b41a78007f
:100db000a4127800e4824200640242009460a90018
:100dc0003eb09000ceb090005eb19000eeb19000c9
:100dd0007eb290008eba9000162b0700240a2000e5
:100de0000e02420004007800f12a07001e909000d5
:100df000ae9090003e919000ce919000211a070095
:100e00009460a8002d00370034b52100144278000a
:100e10000482fb00240798002800370064092000a2
:100e20000e02420004007800052607003e8890006c
:100e3000ce8890005e899000ee8990007e8a9000b6
:100e40008e929000161407001c003700a4082000a2
:100e50000e02420004007800f92507005e80900031
:100e6000ee8090007e8190008e8990001e8a900016
:100e7000ae8a90006814070010003700e4072000d5
:100e80000e02420004007800ed2507007e38900035
:100e90008e8090001e819000ae8190003e82900076
:100ea000ce8290008818070000027800140f980086
:100eb0001e08900021250700000000000042eb0002
:100ec000044078005afbb700810237001e029000f0
:100ed0009e027800848f5200040032001e027800c7
:100ee000140798001e0078000c2507002e029000c1
:100ef000e10f52000f003a00a4df8000e10f520022
:100f00000c003a00640720000e0242000400780042
:100f1000711a07003e389000ce3890005e3990007c
:100f2000ee399000d71907000c25070014002000a7
:100f3000040f7800a4b5210014427800e04f52005d
:100f40008000320024b52100144278000482fb00a6
:100f50006123b900e4ff2f00f5ff2f0006024200d5
:100f600087824a000601200007002000860f5200f9
:100f7000878f5a006d003e000460010013003700a7
:100f80006c0037000e0037006a0037006900370038
:100f900068003700670037006600370065003700db
:100fa0006400370063003700330037004700370024
:100fb00052003700350037005e0037000700370069
:100fc0000002eb00040f78005b0037009460a9007a
:100fd000702807009460a80057003700241d2000e7
:100fe0000e024200040078004b250700241d20005b
:100ff0000e024200650e20008e824200b41a780074
:10100000a4127800e482420064024200b41a78001c
:10101000a4127800e482420064024200b41a78000c
:10102000a4127800e4824200640242009460a900a5
:101030003eb09000ceb090005eb19000eeb1900056
:101040007eb290008eba90007a2a0700e406200053
:101050000e02420004007800552a07007e309000fe
:101060008e3890001e399000ae3990008519070027
:101070009460a8003000370034b521001442780095
:101080000482fb00240798002b0037002406200070
:101090000e02420004007800692507001e3090000f
:1010a000ae3090003e319000ce3190005e32900024
:1010b000ee3290000418070000027800140f980028
:1010c0001e0890009d2407001b00370064052000c7
:1010d0000e02420004007800592507003e289000c7
:1010e000ce2890005e299000ee2990007e2a900084
:1010f0008e3290006a1307000f003700a40420000e
:101100000e024200040078004d2507005e2090008a
:10111000ee2090007e2190008e2990001e2a9000e3
:10112000ae2a9000bc130700030037000000000047
:1011300001003700000000000042eb00044078008e
:101140005afbb7009460a9001b1a07000002780040
:10115000240f98009460a8002e0a9000e00f52001f
:1011600002003a0014002000040f7800d801370074
:101170001e0290009e027800848f52000a00320006
:101180001e027800140798001e00780063240700f0
:101190000002eb00440798000002eb00740798007f
:1011a00024002000040f98002e029000e10f52004e
:1011b0000f003a00a4df8000e10f52000c003a005b
:1011c000240420000e02420004007800c219070027
:1011d0001e209000ae2090003e219000ce21900075
:1011e000281907005d24070014002000040f780070
:1011f000a4b5210014427800e04f5200550032009f
:1012000024b52100144278000482fb006123b90058
:10121000e4ff2f00f5ff2f000602420087824a00fc
:10122000e600200007002000860f5200878f5a003a
:1012300045003e0004600100110037004200370005
:101240000c003700400037003f0037003e003700f9
:101250003d0037003c0037003b0037003a003700c4
:10126000390037000c003700200037002b00370012
:101270000e0037000002eb00040f78003200370048
:101280009460a900c32707009460a80024002000f0
:10129000040f78002c00370034b521001442780088
:1012a0000482fb0024079800270037006403200015
:1012b0000e02420004007800e12407003e1890006e
:1012c000ce1890005e199000ee1990007e1a9000e2
:1012d0008e2290007c17070000027800140f9800ff
:1012e0001e0890001524070017003700a4022000f4
:1012f0000e02420004007800d12407005e10900026
:10130000ee1090007e1190008e1990001e1a900031
:10131000ae1a9000e21207000b0037007e02470071
:1013200004007800c62407007e0890008e1090000c
:101330001e119000ae1190003e129000ce1290004f
:1013400035130700000000000042eb000440780065
:101350005afbb7007e029000e10f52005a003200a3
:10136000e10f520003003900e20f5200800032000a
:10137000c0003700fe0290000e0a9000848f5200d9
:101380004a0032007e029000040f98009460a90089
:10139000241d20000e02420004007800922907005c
:1013a000241d20000e024200650e20008e824200a5
:1013b000b41a7800a4127800e48242006402420069
:1013c000b41a7800a4127800e48242006402420059
:1013d000b41a7800a4127800e48242006402420049
:1013e0009460a8004e0290000402e8006011200002
:1013f0000e0040006c22b90004027800040247008d
:10140000e411b0001403be00869fbe0064024200d7
:101410001403be00869fbe00640242001403be0097
:10142000869fbe0064024200be039000beb09000e2
:101430004eb19000deb190006eb29000feb290000e
:101440000ebb900003280700ec8757005e0a91004e
:10145000ee0a91006011b8000400be0021050700eb
:1014600000027800e00f52000e0032005e0a910088
:10147000ee0a910034079900450799009460a9008d
:101480007eb890008e0091001e019100ae01910087
:101490003e029100ce029100162707009460a8003a
:1014a000020037001400200074079800421907005a
:1014b00000027800e00f520002003a001400200001
:1014c0007407980071003700fe0290000e0a900029
:1014d000848f52000f0032007e009000000f9800b1
:1014e0003e0a9100ce0a910054bf980065bf980053
:1014f0009460a9001eb89000aeb890003eb990006c
:10150000ceb990005eba9000eeba9000d4260700e3
:101510009460a8002819070000027800e00f52002c
:1015200012003a004e0290000402e80044079800be
:10153000ce0290005e029000848f520003003d00b6
:101540000002eb0074079800080037006e0290005c
:10155000e00f520003003a0014002000040f78004e
:10156000020037002400200074079800470037006d
:10157000fe0290000e0a9000848f52003600320066
:101580007e029000040f98009460a900241d2000a2
:101590000e0242000400780013290700241d2000d9
:1015a0000e024200650e20008e824200b41a7800be
:1015b000a4127800e482420064024200b41a780067
:1015c000a4127800e482420064024200b41a780057
:1015d000a4127800e4824200640242009460a800f1
:1015e0001e0b9100ae0b91007eb290008eba90005f
:1015f0000401be000600be00b10507000002be00e7
:101600000400be00672a07000002be0034079900ec
:10161000450799003e029100ce0291006011b8008a
:101620000400be00af04070000027800e00f520083
:10163000090032009460a9007eb890008e009100ed
:101640001e019100ae0191003e029100ce02910078
:10165000a82607009460a800d718070000027800a9
:10166000e00f520002003a0014002000040f78003e
:10167000060037009460a900c62607009460a80001
:1016800024002000040f78000000000090003700c4
:101690001e0290009e027800848f520004003200e7
:1016a0001e007800100798001e0078001b2307001a
:1016b000a4b5210014427800e04f52006d003200c2
:1016c00024b52100144278000482fb006123b90094
:1016d000c4ff2f00f5ff2f000602420087824a0058
:1016e000e600200007002000860f5200878f5a0076
:1016f0005d003e00046001000e0037005a00370014
:101700000f003700580037005700370056003700e9
:101710005500370054003700530037004d003700a4
:1017200051003700500037004f0037004e0037009f
:10173000220037000002eb00040f78004a00370057
:101740009460a90044b52100144278000482fb0093
:10175000cfa2de000400be005d0407000002be0050
:1017600002002000832c24000400be00990807001a
:101770000002be000404be0034b52100144278000b
:101780000482fb00cfa2de000400be00500407006c
:101790000002be0002002000832c24000400be00d2
:1017a0008c0807000002be000801be000400be0055
:1017b000ef0107009460a8002b003700241d2000d3
:1017c0000e0242000400780053230700241d20006d
:1017d0000e024200650e20008e824200b41a78008c
:1017e000a4127800e482420064024200b41a780035
:1017f000a4127800e482420064024200b41a780025
:10180000a4127800e4824200640242009460a900bd
:101810003eb09000ceb090005eb19000eeb190006e
:101820007eb290008eba90008228070076024700b0
:10183000040078005e2807003e089000ce08900063
:101840005e099000ee0990008e1707009460a800d2
:101850000500370034b52100144278000482fb00f3
:1018600024079800000000000042eb0004407800cc
:101870005afbb700160037001e0290009e02780047
:10188000848f5200040032001e0278001407980072
:101890001e007800a1220700a4b5210014427800a0
:1018a000e04f52000600320024b5210014427800b7
:1018b000e34f520002003a0014002000040f7800a9
:1018c0000300370014002000040f7800000000001f
:1018d000d0fb37003600f800809fbe00829fbe001c
:1018e000849fbe00869fbe000000fa008660a900ab
:1018f00074dd800094dd880084dd8000a4dd880034
:10190000941680004922de00614262000482fb00de
:101910000402420084027800941680004822de000f
:10192000614262000482fb00048242000402420021
:1019300084027800941680004722de006142620033
:101940000482fb000482420074dd8800941680004b
:101950004622de00614262000482fb000402420073
:1019600084027800541680004922de006142620041
:101970000482fb00048242000402420084027800d8
:10198000541680004822de00614262000482fb009f
:101990000482420084dd880075dd800094dd8000d3
:1019a000848f52005500320074dd80006123b9003d
:1019b0000082eb008082eb000602420087824a0030
:1019c0005600200007002000860f5200878f5a0023
:1019d00049003e0004600100050037001a0037008e
:1019e0000e0037002e003700380037002100370086
:1019f00094dd8000e30f520004003a00c4de800052
:101a00000402e800c4de88003c003700c4de800029
:101a10000402e900c4de88003800370094dd80004d
:101a2000e20f520004003a00c4de80000402e80025
:101a3000c4de880031003700c4de80000402e90003
:101a4000c4de88002d00370094dd8000e60f5200d0
:101a500004003a00c4de80000402e800c4de88000e
:101a600026003700c4de80000402e900c4de8800de
:101a70002200370094dd8000e40f520004003a0099
:101a8000c4de80000402e800c4de88001b003700ca
:101a9000c4de80000402e900c4de880017003700bd
:101aa00094dd8000e50f520004003a00c4de80009f
:101ab0000402e800c4de880010003700c4de8000a5
:101ac0000402e900c4de88000c00370094dd8000c9
:101ad000e10f520004003a00c4de80000402e80076
:101ae000c4de880005003700c4de80000402e9007f
:101af000c4de8800010037000000000085dd8000a2
:101b0000a4dd8000848f52005500320084dd800007
:101b10006123b9000082eb008082eb0006024200e4
:101b200087824a005600200007002000860f5200de
:101b3000878f5a0049003e0004600100050037000d
:101b40001a0037000e0037002e003700380037002b
:101b500021003700a4dd8000e30f520004003a00aa
:101b6000d4de80000402e800d4de88003c003700a8
:101b7000d4de80000402e900d4de8800380037009b
:101b8000a4dd8000e20f520004003a00d4de8000a1
:101b90000402e800d4de880031003700d4de800083
:101ba0000402e900d4de88002d003700a4dd8000a7
:101bb000e60f520004003a00d4de80000402e80080
:101bc000d4de880026003700d4de80000402e9005d
:101bd000d4de880022003700a4dd8000e40f52002c
:101be00004003a00d4de80000402e800d4de88005d
:101bf0001b003700d4de80000402e900d4de880038
:101c000017003700a4dd8000e50f520004003a0001
:101c1000d4de80000402e800d4de88001000370023
:101c2000d4de80000402e900d4de88000c00370016
:101c3000a4dd8000e10f520004003a00d4de8000f1
:101c40000402e800d4de880005003700d4de8000fe
:101c50000402e900d4de8800010037000000000023
:101c60002f0107000080fa004f03be004f02be00a4
:101c70004f01be004f00be003600f90000400600d4
:101c80000000fa001536800004fe2f000482620076
:101c90002401b300143688006536800004fe2f004e
:101ca000048262003401b3006436880095368000f7
:101cb00004fe2f00048262004401b30094368800c1
:101cc0008536800004fe2f00048262005401b300b8
:101cd0008436880091000700c9e2a900c0e2a9008b
:101ce000c142a900c102a900d022a900c862a9006e
:101cf00011e1a900840880000440a1000450a10063
:101d0000840888000002eb003408880004192000d1
:101d10006408880011e1a8000002eb00040c8800b0
:101d20000002eb00140c8800240c80000400a100c9
:101d30000410a0000420a000240c88000002eb0086
:101d4000340c88000002eb00440c8800540c800026
:101d50000400a1000410a0000420a000540c88007e
:101d60000002eb00640c88000002eb00740c880099
:101d7000840c80000400a1000410a0000420a00036
:101d8000840c88000002eb00a40c88000002eb0029
:101d9000940c8800b40c80000400a1000410a00082
:101da0000420a000b40c880004192000240e880030
:101db000c821a800c881a800c901a800c921a8009d
:101dc000c1e1a8006220a8006240a80062a0a800ab
:101dd00062c0a8006260a8006280a8008660a900b6
:101de0009660a800941680004922de0061426200dd
:101df0000482fb00040242008402780094168000f2
:101e00004822de00614262000482fb00048242003c
:101e10000402420084027800941680004722de000b
:101e2000614262000482fb000482420094dd88006b
:101e3000941680004622de00614262000482fb00ac
:101e40000402420084027800541680004922de0019
:101e5000614262000482fb000482420004024200ec
:101e600084027800541680004822de00614262003d
:101e70000482fb0004824200a4dd880094dd80001f
:101e800074dd8800a4dd800084dd8800a4bb21000f
:101e90008002eb00050a7800a4bb21008002eb0061
:101ea00015029800a4bb21008002eb0025029800d7
:101eb000a4bb21008002eb00350298001700070048
:101ec0000080fa00000006000000fa000002eb00ab
:101ed000b40e88000002eb00c40e88000002eb0084
:101ee000340c88000002eb00640c88000002eb0058
:101ef000940c88000002eb00040c8800cde2a800de
:101f0000c4e2a800c542a800c502a800d422a800c7
:101f1000cc62a8000080fa00000006000000fa0071
:101f20000002eb00b40e88000002eb00c40e880033
:101f30000002eb00340c88000002eb00640c880007
:101f40000002eb00940c88000002eb00040c8800f7
:101f5000cde2a900c4e2a900c542a900c502a900ba
:101f6000d422a900cc62a9000080fa00000006007b
:101f70000800fa00881f7800008fbe002207980032
:101f80003307980018c0b3006011b8001e00be00ef
:101f90001102070000027800e00f520001003d002e
:101fa0000044eb00e04f54000f003200020020001c
:101fb000833c24001e00be002f0407000002be0068
:101fc0000400be00060207000002be008402780082
:101fd000a4bb2100050a7800a4bb21008002eb000d
:101fe000250298000f00370002002000833c2400e7
:101ff0001e00be00200407000002be000400be0058
:10200000f70107000002be00040278008402ea0023
:10201000a4bb2100050a7800a4bb21001500200004
:102020002502980018c0b3006011b8002e0090007f
:10203000be009000e801070000027800e00f5200a7
:1020400001003d000044eb00e04f5400100032005e
:1020500002002000833c24002e009000be0090006f
:10206000050407000002be000400be00dc010700fa
:102070000002be0084027800a4bb21001502980073
:10208000a4bb210015002000350298001000370085
:1020900002002000833c24002e009000be0090002f
:1020a000f50307000002be000400be00cc010700db
:1020b0000002be00040278008402ea00a4bb2100f2
:1020c00015029800a4bb21008002eb0035029800a5
:1020d000a4bb210094027800f4182000848f5200e1
:1020e00003003400a4bb2100f5182000050a780085
:1020f000a4bb210094029000f4182000848f5200a9
:1021000003003400a4bb2100f5182000150298003c
:10211000030007004f0478000080fa00000006006a
:102120000000fa00a4bb210024029000e10f52003d
:1021300063003a0074dd80006123b9000082eb0087
:102140008082eb000602420087824a00560020008f
:1021500007002000860f5200878f5a004e003e0075
:102160000460010005003700100037001b00370035
:1021700026003700300037003b003700a4bb2100a9
:102180001402780004024200b40e88000002eb0042
:10219000c40e880014002000340c8800cde2a80092
:1021a000c4e2a900c542a800a7003700140020001f
:1021b000b40e8800a4bb210014027800040242007f
:1021c000c40e88000002eb00340c8800cde2a800a9
:1021d000c4e2a800c542a9009b0037000002eb0042
:1021e000b40e8800a4bb210014027800040242004f
:1021f000c40e880014002000340c8800cde2a90031
:10220000c4e2a800c542a8008f0037000002eb001e
:10221000b40e880014002000c40e8800a4bb210066
:1022200014027800340c8800cde2a900c4e2a800b2
:10223000c542a80084003700a4bb21001402780026
:1022400004024200b40e880014002000c40e88006e
:102250000002eb00340c8800cde2a800c4e2a80024
:10226000c542a9007800370014002000b40e880091
:102270000002eb00c40e8800a4bb21001402780009
:10228000340c8800cde2a800c4e2a900c542a80031
:10229000000000006c0037000002eb00b40e880064
:1022a0000002eb00c40e88000002eb00340c880032
:1022b000cde2a900c4e2a900c542a900620037002e
:1022c00074dd80006123b9000082eb008082eb00a6
:1022d0000602420087824a005600200007002000c4
:1022e000860f5200878f5a004d003e0004600100a7
:1022f000050037000f0037001a00370024003700b0
:102300002f0037003a00370014002000b40e880078
:102310000002eb00c40e8800a4bb21001402780068
:10232000340c8800cde2a800c4e2a900c542a80090
:1023300045003700a4bb21001402780004024200cb
:10234000b40e880014002000c40e88000002eb00c8
:10235000340c8800cde2a800c4e2a800c542a90060
:10236000390037000002eb00b40e88001400200092
:10237000c40e8800a4bb210014027800340c88002d
:10238000cde2a900c4e2a800c542a8002e00370093
:102390000002eb00b40e8800a4bb210014027800f8
:1023a00004024200c40e880014002000340c88008f
:1023b000cde2a900c4e2a800c542a800220037006f
:1023c00014002000b40e8800a4bb21001402780081
:1023d00004024200c40e88000002eb00340c8800a6
:1023e000cde2a800c4e2a800c542a900160037004b
:1023f000a4bb21001402780004024200b40e88003d
:102400000002eb00c40e880014002000340c880089
:10241000cde2a800c4e2a900c542a8000a00370026
:102420000002eb00b40e88000002eb00c40e88002e
:102430000002eb00340c8800cde2a900c4e2a90040
:10244000c542a90000000000a4bb21003402900096
:10245000e10f52005f003a0084dd80006123b90083
:102460000082eb008082eb000602420087824a0075
:102470005600200007002000860f5200878f5a0068
:102480004a003e0004600100050037000f003700dd
:1024900019003700230037002d00370037003700c0
:1024a000a4bb210014029000640c88000002eb0021
:1024b000940c880014002000040c8800c502a800b9
:1024c000d422a900cc62a800a0003700140020008c
:1024d000640c8800a4bb210014029000940c8800b6
:1024e0000002eb00040c8800c502a800d422a8005a
:1024f000cc62a900950037000002eb00640c880054
:10250000a4bb210014029000940c88001400200049
:10251000040c8800c502a900d422a800cc62a8003f
:102520008a0037000002eb00640c880014002000d1
:10253000940c8800a4bb210014029000040c8800b5
:10254000c502a900d422a800cc62a8007f003700f1
:10255000a4bb210014029000640c88001400200029
:10256000940c88000002eb00040c8800c502a8004f
:10257000d422a800cc62a900740037001400200007
:10258000640c88000002eb00940c8800a4bb2100be
:1025900014029000040c8800c502a800d422a900ef
:1025a000cc62a80000000000680037000002eb00c9
:1025b000640c88000002eb00940c88000002eb0021
:1025c000040c8800c502a900d422a900cc62a9008d
:1025d0005e00370084dd80006123b9000082eb00db
:1025e0008082eb000602420087824a0056002000eb
:1025f00007002000860f5200878f5a0049003e00d6
:1026000004600100050037000f0037001900370093
:10261000230037002d00370037003700140020005a
:10262000640c88000002eb00940c8800a4bb21001d
:1026300014029000040c8800c502a800d422a9004e
:10264000cc62a80041003700a4bb21001402900016
:10265000640c880014002000940c88000002eb0039
:10266000040c8800c502a800d422a800cc62a900ee
:10267000360037000002eb00640c880014002000d4
:10268000940c8800a4bb210014029000040c880064
:10269000c502a900d422a800cc62a8002b003700f4
:1026a0000002eb00640c8800a4bb2100140290001f
:1026b000940c880014002000040c8800c502a900b6
:1026c000d422a800cc62a80020003700140020000b
:1026d000640c8800a4bb210014029000940c8800b4
:1026e0000002eb00040c8800c502a800d422a80058
:1026f000cc62a90015003700a4bb21001402900091
:10270000640c88000002eb00940c88001400200088
:10271000040c8800c502a800d422a900cc62a8003d
:102720000a0037000002eb00640c88000002eb0096
:10273000940c88000002eb00040c8800c502a9007c
:10274000d422a900cc62a900000000000080fa0099
:10275000000006000040da000000fe00889fbe0076
:102760008a9fbe008c1f78007500070010022000b1
:1027700002003b00c0df8800790037008a00620059
:102780006408e10002003a00c0df880081003700e1
:102790006108e100fcff32000800be00030478007d
:1027a0008c04070001f0a1002603070008f0a60032
:1027b000040037000001be0091042400b0fd200099
:1027c0003f01070009f0a70001f0a2006d003700eb
:1027d00014002000ce073700f4ff2f00cc0737008d
:1027e0000001be00410007000470a70003f0a10033
:1027f0006509b100160032000d0035006828e100bf
:1028000006003500f0ff2f00f1ff27000300e00075
:1028100013003b00010028000000050000004000fc
:10282000818048008502e900fcff3a00080037007b
:10283000f88f420002003c008000eb000000050021
:102840008100d1000080d3008502e800fcff3a003f
:102850000300e00002003b0060001000e080180070
:10286000000006000001be00200007000470a70061
:1028700003f0a10003f8a30013003a006509b100ba
:1028800010003200090035006928e100020035001f
:102890000100280000000500000040008180480081
:1028a0008502e900fcff3a0000000600f88f4200b4
:1028b000050035008100d1000080d3008502e800ca
:1028c000fcff3a00000006008000eb00000005005d
:1028d0004f89de0082017800a80737006011b80038
:1028e000b60737000400200089073700c70ade005a
:1028f000f107b200f50fb20008003200e1cf42004c
:10290000020032000170a00024000500810f700059
:10291000010032000408050044000500810f70002a
:1029200002003a00140005008502e90000004000a2
:1029300081c04800fcff3b000170a000240005009e
:102940000004be00e9ff07000003be000405be004e
:102950000200be00e5ff0700844f7500000006007e
:102960000200be006450e100050036006420e10072
:10297000020036000968a30001003a000800be000a
:102980000160a0004f0678004f05be004f04be0056
:1029900000000600f0ff2f00f1ff2700f9ff3700cd
:1029a000889fbe003400f80003002000a3018800c7
:1029b000030028008384600001f0a100b2fd200024
:1029c00093f4230002015000838158000c00310071
:1029d0000200200003982300020150008381580068
:1029e000030039004c05070039000700f705070010
:1029f000898068003400f9004f04be000000060022
:102a00008a9fbe008c9fbe00020020000398240015
:102a100000015100818159001e0039003e05070068
:102a2000f50607000005eb000100e00003003d0093
:102a300060001000e08018000a00280063036200b4
:102a40006333b800066001002100070000000000a9
:102a5000080037006d0007000005eb000500370097
:102a60001b0007000af0a200020037006700070001
:102a70000a002800d5050700898068008a80680060
:102a80004f06be004f05be003400f9004f04be00e3
:102a900000000600700007000778a3000500320060
:102aa0000160a0008980700012022000c2df88004f
:102ab000f3ff37000768a30003003200f0ff2f0088
:102ac000f1ff2700f8ff37006000b800f6ff37007d
:102ad0000100e000120032006f03410010003500d9
:102ae000809fbe00821f78000002be008201780035
:102af000a00407006403410003003d0043002000e0
:102b0000c4cd2a00020037005300200084cd2a00e3
:102b100073030700cf0178004f02be009504070041
:102b200000000600889fbe003400f800030020006b
:102b3000a3018800030028008384600001f0a10045
:102b4000b2fd200093f4230002015000838158005d
:102b50001000310002002000039823000201500001
:102b60008381580006003900eb04070027000700a6
:102b7000960507003400f9004f04be00000006006f
:102b800001f82300000020003400f9004f04be00cb
:102b9000000006008a9fbe008c9fbe00020020003d
:102ba000039824000001510081815900b9ff3900c8
:102bb000d9040700900607000005eb000100e000c3
:102bc00003003d0060001000e08018000a002800ab
:102bd000630362006333b8008004eb000660010009
:102be0000a0007000005eb00a2ff3700b8ff07004e
:102bf0000af0a2009fff3700040007000a00280027
:102c00009cff3700b2ff07009aff37000100e00089
:102c10000e0032006f0341000c0035000002be00c0
:102c200082017800530407006403410003003d0063
:102c30004300200004cf2a00020037005300200088
:102c4000c4ce2a0026030700000006000000200072
:102c500001002400020005002700200001f0a70069
:102c600017002000470bde00f60fb2000400320010
:102c70000643e8000a0032004702b30000000600e5
:102c800001037800f607b2000603700002003a0064
:102c90000703b300000006008702b300000006002f
:102ca00001037800f607b20006037000020032004c
:102cb0000770a000000006000760a00000000600ea
:102cc00007f82700078361000638e10004003a0096
:102cd000f7072000878361008703710001003a0035
:102ce00003f0a200889fbe008a9fbe008c9fbe009a
:102cf000470ade000480a100c71ade000580a1009b
:102d0000070028000785600087856100f70f200015
:102d10000720e1009e0032000728e1009c003200fd
:102d2000010678000400e000b4003200f70720003c
:102d3000878060000170a0000500e000c000320044
:102d4000f7072000878161000370a000050652008c
:102d50000f003a000b50e1000b0032000308e100c5
:102d600002003a000200e1007e003200020450003e
:102d700083845800040031000001fd008101fd0042
:102d80008402fd008a05fd006044b8002100370080
:102d90000520e10005003d000001fd008101fd006e
:102da0008402fd008a05fd00050652007a60e100fc
:102db000050035000170a1004722dd00848070000d
:102dc0008a807000630037006044b800ef0266003c
:102dd00007ff2f00070666000500e000060034002c
:102de000f08312008714dd000511de00071bdd00f3
:102df000060171008519de007060e10005003500f4
:102e00000904780082047800030178008001eb0057
:102e1000700656000b50e10003003a00020040002b
:102e2000838048000400370060041400e0841c0024
:102e300002005800838058000188a3000600320079
:102e40008100d1000080d3008984d3000884d3009e
:102e50000402e800270037000178a30025003a00ab
:102e60000100e000030032008186cf006986560031
:102e70000a0037008c0020000000e00004003a0047
:102e800009007800880478000004eb00700252000a
:102e90008086cf000d0646000c06e9007060e10058
:102ea000060035008000780009007800880478006a
:102eb0000004eb0070065600700252000c00e000a7
:102ec0000c0034008c08dd00f00316000703de0060
:102ed000868070000c00dd00074bde0006007000ed
:102ee0008c4cdd000743de00868474000c44dd005a
:102ef0000c0252006120e1002000350061016000f9
:102f00000700280087816400f7ff2700878364009b
:102f1000070374000300e000060032008203730020
:102f2000040032000000e800e08048000188a300af
:102f30000e003a00f70f20000720e1004a003d0094
:102f40000170a1004722dd00810072008a807000bc
:102f50000000be004f06be004f05be004f04be007d
:102f6000000006006000b800faff37008100d100c1
:102f70000080d3000402e800eeff3700040178006f
:102f800089017400170407008a807000f1ff370080
:102f900031ff0700070278000001fd008101fd00fc
:102fa0002dff070087027800850372000778a300d1
:102fb000040032000001fd008101fd0064030700f0
:102fc000e4ff3700850362000768a30008003200b1
:102fd0000b50e10003003200f0ff2f00f1ff27004b
:102fe000dcff37000001fd008101fd00d9ff370043
:102ff0000468a300d7ff3200faff3700f8ff27006c
:10300000888360000b003a000000e00009003a00ed
:103010008303640082837300020032000200be005a
:10302000ccff37000b50e100ceff3a000200be009b
:10303000c8ff370014002000810064003eff370005
:10304000f8ff27008883610004003a000200e000d6
:1030500002003a008c007800beff37001500200007
:103060008301640039ff370001f8270000002000c9
:1030700081007500b7ff3700038368000700280050
:1030800007036300470ade000480a100c71ade00c0
:103090000580a100f70f20000720e1004200320068
:1030a0000728e10040003200889fbe008a9fbe00d2
:1030b0008c1f7800f107b200f307b2000400e000b3
:1030c000640032000170a0000500e00068003200da
:1030d0000370a00085054200eb07b1000204b800b0
:1030e0000302b8008484440060854a00020ab800e4
:1030f000848444000a854a00030ab8000405450098
:10310000040033000804d0008984d2000a85d2006c
:103110008b05e9006158e1003d00350002102000f8
:10312000090161000308200089816100f707200080
:103130008783640008867300c84cde00c853dd0036
:10314000878474004855de000300e000060032006a
:1031500082037600040032008904e80060054d0017
:103160000a88a3000c003a00f70f20000758e1007e
:1031700044003d000a70a100c75ddd000a857500ae
:103180008a007300090078004f0678004f05be00e2
:103190004f04be00000006000a05d1008984d30058
:1031a0008b05e800f0ff3700881f780006047800e0
:1031b000a9fe0700070278000001fd008101fd0063
:1031c000a5fe070087027800850372000778a30038
:1031d000050032000001fd008101fd00dc02070056
:1031e0004f04780000000600850372000748a30022
:1031f00003003200f0ff2f00f1ff2700f8ff370037
:103200000000200001f8270088807000f4ff3700dc
:10321000880178004848dd00808171004848de0060
:10322000c850dd0001007000c850de0006047800c0
:103230000b0178006b03070088807000d2ff370015
:103240000500e0000500320017002000b201070071
:103250009dff370081037000f9ff3a008600780077
:103260004f0678004f05be004f04be000000050069
:1032700083037100f9ff320027002000a601070038
:1032800094ff370001f8270086807000f4ff3700b4
:10329000020250008382580061003900030371006c
:1032a0006200320005037200590032000300e000a2
:1032b0005500330017003a000100e0004b003200d7
:1032c0000208e10006003100110009004288d80020
:1032d000010178008001eb008000eb000000060097
:1032e0006110e100550032000002be00110009002b
:1032f0008280d80080027800040078001100090064
:103300004288d800010178008001eb008500780038
:1033100000000600889fbe008a9fbe008c9fbe00f2
:103320000386cf000c06e9008c1f78008c19dd00a5
:10333000f00216000512de00848171000c11dd0020
:103340000003be008004eb00053cde008c3bdd008a
:103350000532de00848373000c33dd000700780043
:1033600088007800110009004388d8000202b800e4
:103370000306b8008c82420060854e008005eb0099
:103380000402530085825b000a055c008b855c00ab
:103390000b0033008000eb004f0678000c21de00ac
:1033a000700516000a2ddd000a0171008c29de006f
:1033b0004f06be004f05be004f04be0000000600d1
:1033c0000202420083824a0060054d00e0854d0004
:1033d0000000e9000b00e000eeff3d0002024200a9
:1033e00083824a000000e900eaff37000000e000a5
:1033f00012003200110009000280d800010178009b
:103400008000eb00000006000401be000100370050
:103410006011b800100020008000eb0000000600e2
:103420000001be006000b800000006000001be0000
:10343000f0ff2f00f1ff2f00000006006011b80020
:1034400000000600889fbe008a9fbe008c9fbe00c1
:103450003400f80006002000a601880006002800bd
:103460008686600001f0a1000600200007e023002e
:103470000603500087835800120031000600200028
:103480000798230006035000878358005c0039002a
:10349000a10207000005be00820478000002be0001
:1034a000820178003302070043002000c4bf2a00d5
:1034b0006d0507000a02be00890178002d02070091
:1034c0004e003700060020000710240006035000bd
:1034d00087835800380031000600200007fd2300d4
:1034e00006035000878358000b0031008a02070052
:1034f0000005be0082047800620141002905070032
:1035000000067800ef03070062015100809fbe00b3
:10351000821f7800080037007f0207000005be0008
:10352000820478001f05070065064000e5030700d8
:10353000809fbe00821f78000a02be0089017800c9
:1035400007002400060020000800200051000700aa
:103550000005fd008105fd008204fd00cf0178001b
:103560004f02be00cc0207000a02be0089017800ab
:10357000e10107000104780008f8a300020032000e
:1035800060001000e08018002d00070008f8a3007c
:103590000200320060001000e0801800c6c02a005f
:1035a0006665b800060345003602be009601780045
:1035b000bb020700110037000600200007c82400e6
:1035c00006035000878358001300310052020700a1
:1035d0000002be00820178000100240000002000eb
:1035e00002002000c40107001500070075482600ee
:1035f00014d52e0003002000a4020700f3020700e8
:103600008d8070003400f9004f06be004f05be00eb
:103610004f04be00000006008ffd07000778a300de
:1036200003003a00b0fd200091fc2300f4ff3700b6
:103630000160a00016022000c6df8800f0ff3700fe
:103640000100e0000d003200ef0341000b003500e7
:10365000809fbe00821f78000002be0082017800b9
:10366000c401070043002000c4bf2a00fe04070075
:10367000cf0178004f02be00be0107000000060027
:1036800060001000e08018000200370060031300a3
:10369000e0831b00889fbe008a9fbe008c9fbe00f7
:1036a000830441000405b800050eb8000501b80008
:1036b0008285450003064e00e0864e000409b800ee
:1036c0008285450003064e00e0864e000100e000c2
:1036d00002003d000406560085865e000500e000fd
:1036e00002003d000006560081865e000d00e000ed
:1036f000740032000700e000750032006022b8005c
:103700008783d1000683d3008582d300090054004b
:103710000000e9001b003c003b0035000804e80005
:103720000a0042008b804a000c014b008d814b0047
:1037300077050700040454000300e0000e00320087
:10374000090028000918e100060032000200be004e
:10375000080178004f06be004f05be004f04be00b2
:10376000000006000200e000f8ff3a0003002c0011
:103770000804e800f5ff37006000b8000001eb0026
:10378000f4ff37000804e8007e00e1000100340087
:10379000e0012000cfecde00ef0060000100e0005f
:1037a0000c003200f08110000155de000359dd00ed
:1037b00002057500815dde000361dd008285750014
:1037c0000166de000369dd000206760081eede00a0
:1037d000010050004400de006501b80002600100f5
:1037e0000a0042008b804a000c014b008d814b0087
:1037f000cfff37000b0042008c804a000d014b00c8
:1038000089814b00caff3700628444000000ea004f
:10381000030420000300e100010034000004200044
:10382000cfbcde00ef0060000a003200f081100023
:10383000032add00812ade000331dd00828272006e
:103840000133de000339dd000203730081bbde00bb
:10385000010050004400de006501b8000260010074
:103860000a0042008b804a000c014b008d814b0006
:10387000afff37000a8042008b004b000c814b00e9
:103880008d814c00aaff37000a0043008b804b005b
:103890000c814c008d814c00a5ff37000a8043004d
:1038a0008b804c000c814c008d814c00a0ff3700b8
:1038b0000a8044008b804c000c814c008d814c00b0
:1038c0009bff37000600be0008017800a1ff37000b
:1038d0000c01be000a00be006284440094ff370061
:1038e000e102410002003500e30407000000060089
:1038f000e2024100020035001c0307000000060040
:10390000e302410002003500010407000000060048
:103910005504070000000600889fbe000004eb006d
:103920006138e10016003a000100e00008003a00aa
:10393000c800de004800dd00880020000100e00033
:1039400003003a00c800de004800dd0068044400bf
:103950008184cf00e9845400060034008908dd002a
:10396000f08314008703de00878070000900dd000b
:1039700009044400610214004f04be000000060068
:103980000300e00008003a00c811de004811dd0025
:10399000880020000300e00003003a00c811de00a8
:1039a0004811dd00680444008384cf00e98454009a
:1039b000060034008919dd00f08314008713de004f
:1039c000878171000911dd0009044400e10214003f
:1039d000e9ff3700889fbe008a9fbe008c9fbe0013
:1039e0001b0020000202be000586680006002800b9
:1039f000060666004709de00f20fb20082003200c0
:103a00000243e80080003200c729de00f30fb20055
:103a10007d0032000343e8007b003200f107b20072
:103a20000170a000f507b2000570a000c708dd0016
:103a30004903de00868070004700dd00c72add00f4
:103a40004923de00868272004722dd000305510013
:103a5000040350008583580003003100000040003b
:103a6000818048000a05e9008c1f78008a9fbe000b
:103a700004005000858058000402420085824a00fc
:103a800000004000818048000005eb000004be00fb
:103a90006033b8000406be000d48e1005600310056
:103aa000110009004dccd8000c01b8000d02b8007f
:103ab0008481410060824a008283530003045c00d9
:103ac00084845c0060055d000a00e00025003a0087
:103ad000800578000d40e100490031008800780041
:103ae00007007800110009004d88d8000c01b800cb
:103af0000d02b8008481410060824a006003110019
:103b000083835b0004045c00e0845c000900e00047
:103b100021003a004f01be000300e0002b003200fc
:103b2000e3016000070673008c8171000100320020
:103b3000640070004200de004e5edd000c0070008c
:103b4000c258de0001e0a000a0010700cf0178000c
:103b5000818071004f06be004f05be004f04be00bd
:103b6000000006008c8343000d044c00e0844c00f0
:103b700060054d000000e9000a00e000d4ff3200bb
:103b80008c8343000d044c00e0844c0060054d0024
:103b90000000e900ceff37000c0343008d834b008b
:103ba00060044c00e0844c000000e9000900e000e3
:103bb000d8ff32000c0343008d834b0060044c009f
:103bc000e0844c000000e900d2ff37004200de0034
:103bd0004e5edd000c007000c258de0001e0a00067
:103be000cf0178000300e000daff3200600010002f
:103bf000e0801800d7ff3700f0ff2f00aaff370042
:103c0000f0ff2f00b9ff37000404be0012fc0700cc
:103c1000870678000004fd008104fd000efc07000b
:103c2000078366000678a300030032000960a7003e
:103c30000800be002c0037000d78a30002003200ff
:103c40000800be00280037000778a30026003a00cd
:103c500001f0a10009f0a1000668a30003003200f2
:103c6000f1ff2700f0ff2f00baff37000d68a30017
:103c7000030032000800be008c807000b5ff3700e2
:103c80000768a30007003a000648a30003003200bb
:103c9000f1ff2700f0ff2f00aeff37000d48a30013
:103ca000030032006000b8008c807000a9ff37006c
:103cb0000748a3000400320001f82700000020009c
:103cc0008c807000a3ff3700930007000004fd0004
:103cd0008104fd00020578008f0007000802be0085
:103ce0008a01780059ff37000160a000120220000d
:103cf000c2df880097ff37000100e00012003200a9
:103d00000500e00010003200889fbe008a9fbe00c0
:103d10008c9fbe000006eb0001f8a30003003200f8
:103d200060001000e08018000cf0a00005f8a3006f
:103d30000300320060021200e0821a000cf0a200c0
:103d40008005eb0041ff37006000b800020005006d
:103d50000478a300040032000578a30003003200b9
:103d60000168a30001003a000200be000160a0004b
:103d700000000600889fbe008a9fbe000004be00af
:103d80000405be00030141000201e8008000eb00d1
:103d90000a42b8000b43b8008682420060804b00a4
:103da0000a4bb8008682420007004800e0804800c5
:103db0000b4bb800060040008780480001037000ec
:103dc00002003a000001eb00120037000900e00099
:103dd00002003d000a0050008b8058000b00e000fc
:103de00002003d0008005000898058008582420092
:103df00000004800818048008101df000300e000ee
:103e000004003200858242000000480081804800a2
:103e10000201e9004f05be004f04be00000006008d
:103e200001f8a3001d003a004709de00f40f20004e
:103e30000410e100260032000200e0002c003200f5
:103e4000f107b200c708dd004902de00848070007f
:103e50004700dd0001e0a000f207b1002e010700dd
:103e6000f207b00004042000840160004700de0077
:103e7000490add0004007000c708de000300e0000e
:103e80000200320061004000e0804800f107b2000b
:103e90004711dd008280700000000600f4ff27005b
:103ea000048260008002720001003a0000000600f7
:103eb00006f827000620e1001200350081026300a9
:103ec00006826a00040270000e003200060037000d
:103ed00004f827000482680003003a000400200070
:103ee00000026a000b0032000160a0000000060022
:103ef0000082700001003a00000006000600070082
:103f0000d6ff370012022000c2df8800f0ff2f002a
:103f1000f1ff2700000006004f0ade004709de001f
:103f2000f107b200f20fb2000b003200f207b1004d
:103f30000170a000c708dd00c901de0083807000a9
:103f40004700dd000400a60000000600600010002d
:103f5000e080180000000600810f700001003a00a8
:103f6000000006008182cf000500e00010003e0046
:103f70008082cf00ee8242007028e1000400390008
:103f800007003e00800078000000eb000e003700c4
:103f9000708312008600de000500dd000a00370095
:103fa000708352008600dd000000eb000600370041
:103fb000e28252008508dd00708312000603de00f5
:103fc000868070000500dd007507b0000501ea007d
:103fd0000400a6000000060060001000e080180049
:103fe000000006000100e00026003200610111001f
:103ff0007810e10023003c006022b8007010e1005e
:104000000400350080027800010078008000eb0099
:10401000700151000200e00009003400700311003b
:10402000062add00822ade008603dd008782720018
:104030000200de00860bdd00070070008208de0053
:1040400084817100f4ff2700048262008481710082
:1040500004002800848262006102600005f0a6006e
:104060000000060004827100070032000000e80032
:10407000e0804800000006000002be006000b800ba
:10408000efff37006000b80000000600600010007d
:10409000e08018000200370060021200e0821a007f
:1040a0000100e0003f0032000500e000390032006e
:1040b000889fbe008a9fbe0082037800830451005f
:1040c00004003d000002fd008102fd008904ea00b9
:1040d0008303780001017800800078000000eb0085
:1040e00005037800840278000002eb0006056900f1
:1040f000070035000281d1008180d3000080d30009
:104100000683d1008582d3000482d3008703e800b0
:104110007048e100060035007f48e10029003c00be
:1041200005027800860278004fb3de00f084540068
:104130000900e000080032000922de00708514004a
:104140008a2ddd000b027200892ade008a35dd002f
:104150008b82720009b3de000400400085804800b5
:104160000601490083020700838353000200e00038
:10417000090032000b0028000b10e1000c00320097
:104180000100780082007800070178004f05be002a
:104190004f04be00000006006000b8000001eb0004
:1041a000faff37000400be0003017800000006009b
:1041b0000100e000f2ff3a0002002c008703e80053
:1041c000efff3700f9012000d5ff370081017000b3
:1041d000270032008002eb0001f8a3000300320048
:1041e00060001000e080180015002000f407200097
:1041f0000202420020003400f70320008703600021
:104200000604200000036300020820000001610092
:104210004700de00c909dd0000807100c708de002c
:104220000600e0000800320087037100060032003b
:104230001000b0000180b0000188a300020032002d
:10424000c108de000402e800f107b200f30f20000d
:104250000320e10003003d004722dd0081007200e1
:104260002900370001f827000000eb002600370086
:104270006000b80000000600680212007f20e10024
:10428000020034006000b8001f0037006011b80061
:104290007020e10004003500800178000100780002
:1042a0008000eb00700252000400e00009003400be
:1042b000f00312000719dd008419de000703dd009a
:1042c000868171000400de00070bdd00060070002f
:1042d0008408de00f7ff27008383630087037100f3
:1042e0000600280003036300070032000700e00017
:1042f00003003a0061016000028173000200320095
:104300001000b0000180b0000500a600000006000b
:1043100001f0a00000000600810370006800320078
:10432000889fbe008a9fbe008c9fbe003400f800ac
:1043300008002000a80188000208a3000300320042
:104340000000d0008180d2000201e90081017800e4
:10435000800278000002eb00821f78004a1cde0019
:104360000801b10089ca2a0069417c000281fb0072
:104370000214b8004644dd000340e10001003600ad
:104380000201e9004111dd001200b3000214b8007f
:104390004444dd000340e100010036000201e90071
:1043a0004111dd001200b3000214b8004244dd00e8
:1043b0000340e100010036000201e9004111dd0087
:1043c0001200b3000214b8000340e10001003600ff
:1043d0000201e9000214b800088651004763dd00bd
:1043e000492cde0008037300820478004834de00a4
:1043f0000940e1002e003100110009000983d800b6
:104400004811dd00000171000214b8000006eb0045
:10441000840678000885520089855900040031001f
:104420000201e9000214b80008855200898559008c
:10443000820478000b04d1008a83d3000d83d3005b
:104440000938e1001c0031001100090049bbd80007
:104450008002eb000003b8000204b8000804440026
:1044600089844c00e0824a008703440060824c004b
:10447000e0814a000603560087835e0004025d0067
:1044800083815d00010031000000e9008200d1005d
:104490000080d3004f0178004191de003400f90024
:1044a0004f06be004f05be004f04be0000000600d0
:1044b000f00f2000d2ff3700f0ff2f00e4ff37009d
:1044c000020005000003eb008101df008301ea0028
:1044d0006f18e1000f0032000300e0000600320018
:1044e0008308dd00708211008402de008580700088
:1044f0000300dd00030343000100e000140032006c
:10450000040028000408e100130032007e011300bb
:10451000000006008100d1008080d3004f00dd0044
:10452000f60020008101df008301ea006f18e1003e
:10453000e9ff3a008100d1008080d3000000eb0049
:10454000e60120008101df008301ea00e2ff37007d
:104550006000b800020005000000e000ebff3a0038
:1045600001002c000603e900e8ff37006218e100b3
:104570001b003500889fbe008a9fbe008c9fbe0036
:104580008301e9000004be000205be0004067800b5
:104590003c00be000801be009a0107003c0041003b
:1045a000bc8049008b05e900faff3c000103df00f5
:1045b0008606ea00050034008d08dd0070821600d2
:1045c0008402de00858070000d00dd0006017800a9
:1045d0004f06be004f05be004f04be00000006009f
:1045e0000300e00002003a006000b800020005008d
:1045f0003400be0002000500889fbe008a9fbe00f6
:104600008c9fbe000006be0082057800741b2c0043
:10461000c5172500f3ff2f00d6fd0700e1000700b6
:10462000809fbe008101700036003200e70150001b
:10463000608258000d0031000000e90009c62a0020
:104640006c00b800890440000c00be000b0178002b
:104650003902be00b90178008ffe07003902be00a2
:10466000b90178008cfe07002100370095ff070094
:1046700014d52e0075482600030020000c03be0050
:104680000b0478000006be0082057800fcfb0700e2
:10469000d3ff2f00838145000218e100140034008d
:1046a0000003be00020478000c00be000b0178007d
:1046b00094462800152d2400e3fd2f00f0fb070091
:1046c000e3fd2f00838145000218e100080034005b
:1046d0000003be00020478000c00be000b0178004d
:1046e000b4282600654c2400f3fb2f00e4fb0700f0
:1046f0004f02be004f06be004f05be004f04be0075
:10470000000006000c00be000b017800f8ff370027
:10471000889fbe008a9fbe00841f780088f807002b
:104720004f00780011003300f0ff2f00838f6c00e2
:1047300006003b00040565000a00a70008003700da
:1047400009f0a6001000200008003700820f540076
:10475000838f5c00030039001000200001003e0040
:104760000000200009f0a7000000ea004f05be008d
:104770004f04be000000e00000000600881f780023
:10478000030478000300e00007003d006000100013
:10479000e080180060011900e081190002003b0070
:1047a00001f02d00030037000400070008f0a70007
:1047b00001f0a0004f04780000000600889fbe00b2
:1047c0008a9fbe00008270000402710004827100a2
:1047d000260032000004be000200be006011b800d6
:1047e0006b092000950220000182cf000a003900e9
:1047f0000541b1000082cf00070039000541b1003a
:104800000982cf00040039000541b1000882cf00c1
:10481000010039000541b10005425200120032008a
:104820000a003b0082817100610164008100d100b7
:104830000080d3008984d3000884d3008b05e8006e
:104840000442e800f7ff3a0007003700080444007c
:1048500089844c0000004800818048008b05e900f5
:104860000442e900f9ff3a00030007004f05be00cb
:104870004f04be000000060081002000618055004a
:104880000b003d000b00200061fe2f000100e10045
:104890001d00340082817100610164008904d1002f
:1048a0000884d3000000e800faff3a0071002000fd
:1048b0006100640003007000020060000900320023
:1048c00061044400e0844c000988a5000500320022
:1048d0008b05e8006808e10002003a008904d10075
:1048e0000884d300f20f20000258e10005003d00cb
:1048f000c75ddd00f907b200898075000800780007
:10490000000006000bf827008b007800000005006f
:104910006218e1001d003500889fbe008a9fbe001e
:104920008c9fbe008301e9000004be000205be00aa
:10493000040678003c00be000801be00b10007007c
:104940008381d1000281d3003c004100bc8049003a
:104950008b05e900f8ff3c000103df008606ea0052
:10496000050034008d08dd00708216008402de0030
:10497000858070000d00dd00060178004f06be0046
:104980004f05be004f04be00000006000300e0001b
:1049900002003a006000b800020005003400be00ca
:1049a000020005000100e000210032008201e80061
:1049b0002b0035007e0211001e0034006011b8008b
:1049c0007020e100040035008001780001007800cb
:1049d000cf88de00700252000400e00007003200c1
:1049e00003017800700312008601dd000400de0080
:1049f000860bdd00070070008488de00e1026000a5
:104a00000600280003036300f7ff27008383630089
:104a1000828373000600e000050032000781720007
:104a20000200e0000200320061004000e080480027
:104a3000000006007e10e10001003a0000000600c0
:104a40000100e00003003500f1ff2700f0ff2f0018
:104a50000000060001002800000020000000060001
:104a60006000b800000006006218e1003b0035005d
:104a7000889fbe008a9fbe008c9fbe008301e90014
:104a80000004be000205be00040678006205450071
:104a90000a05ea003c00be007050e1001700350036
:104aa0000d0032007f50e10001003400fa012000c7
:104ab000f00655000801be00520007000d99de0007
:104ac000cf99de003c004100bc8049008b05e90025
:104ad000f8ff3c00140037000801be004900070041
:104ae00003017800cf99de003c004100bc80490002
:104af0008b05e900f8ff3c000b003700f0061500bd
:104b00000801be003f0007000a11de008d1add001b
:104b1000050171008a99de003c004100bc8049001b
:104b20008b05e900f6ff3c000103df000605ea0003
:104b3000050034008a08dd00700215008402de00e2
:104b4000858070000a00dd00060178004f06be0077
:104b50004f05be004f04be00000006000300e00049
:104b600002003a006000b800020005003400be00f8
:104b7000020005008001eb000202df000402ea00ef
:104b80006f20e10010003a000201d1000181d30042
:104b90008080d3004f00dd00f30020000202df0020
:104ba0000402ea006f20e10007003a000201d10090
:104bb0000181d3008080d3000000eb00e3012000de
:104bc0000202df000402ea000400e00009003200f3
:104bd000f00212000411dd00050bde000601710079
:104be0008408dd000503de00868070000400dd001f
:104bf000848141000200e000010032000000060054
:104c000003000500889fbe008a9fbe008c1f7800ad
:104c10000002be000203be000620b800062db80048
:104c20008a80400060814d000724b800072db8003d
:104c30008a84440060864d008100440002814c005b
:104c4000e0014e000700e000080035000500e0002c
:104c500002003d0006015100878159004f0678008f
:104c60004f05be004f04be000000060004015100c5
:104c700085815900f5ff37006218e1001e003500fc
:104c8000889fbe008a9fbe008c9fbe008301e90002
:104c90000004be000205be00040678003c00be0011
:104ca0000801be00d7ff07008100d0000281d200ba
:104cb0008381d2003c004100bc8049008b05e900a3
:104cc000f7ff3c000103df008606ea000500340020
:104cd0008d08dd00708216008402de008580700081
:104ce0000d00dd00060178004f06be004f05be0036
:104cf0004f04be00000006000300e00002003a007e
:104d00006000b800020005003400be00020005008b
:104d10000002eb008302df008502ea006f28e10059
:104d200023003a008301d1008281d3000181d300a6
:104d30008080d3004f00dd00f40020008302df00fc
:104d40008502ea006f28e10019003a008301d100d2
:104d50008281d3000181d3008080d3000000eb006a
:104d6000e40120008302df008502ea006f28e100f1
:104d70000f003a008301d1008281d3000181d3006a
:104d80008000eb00d40220008302df008502ea00ed
:104d90006f28e10006003a008301d1008281d30030
:104da0000001eb00c40320008302df008502ea005b
:104db0000500e0000c003200708312008519dd0050
:104dc0008613de00878171000511dd00860bde0091
:104dd000070171008508dd008603de008780700012
:104de0000500dd00050242000300e0000100320082
:084df0000000060004000500ac
:020000040000fa
:104df80002000000020000000200000002000000a3
:104e08000200000002000000020000000200000092
:104e18000200000002000000020000000200000082
:104e28000200000002000000020000000200000072
:104e38000200000002000000020000000200000062
:104e48000200000000000000000000000000000058
:104e5800000000000000000000000000000000004a
:104e6800000000000000000000000000000000003a
:104e7800000000000000000000000000000000002a
:104e88000000000000000000000000000200000018
:104e98000200000000000000000000000000000008
:104ea80000000000000000000000000000000000fa
:104eb80000000000000000000000000000000000ea
:104ec80000000000000000000000000000000000da
:104ed80000000000000000000000000002000000c8
:104ee80002000000000000000000000000000000b8
:104ef80000000000000000000000000000000000aa
:104f08000000000000000000000000000000000099
:104f18000000000000000000000000000000000089
:104f28000000000000000000000000000200000077
:104f38000200000000000000000000000000000067
:104f48000000000000000000000000000000000059
:104f58000000000000000000000000000000000049
:104f68000000000000000000000000000000000039
:104f78000000000000000000000000000200000027
:104f88000200000000000000000000000000000017
:104f98000000000000000000000000000000000009
:104fa80000000000000000000000000000000000f9
:104fb80000000000000000000000000000000000e9
:104fc80000000000000000000000000002000000d7
:104fd80002000000000000000000000000000000c7
:104fe80000000000000000000000000000000000b9
:104ff80000000000000000000000000000000000a9
:105008000000000000000000000000000000000098
:105018000000000000000000000000000200000086
:105028000200000000000000000000000000000076
:105038000000000000000000000000000000000068
:105048000000000000000000000000000000000058
:105058000000000000000000000000000000000048
:105068000000000000000000000000000200000036
:105078000200000000000000000000000000000026
:105088000000000000000000000000000000000018
:105098000000000000000000000000000000000008
:1050a80000000000000000000000000000000000f8
:1050b80000000000000000000000000002000000e6
:1050c80002000000000000000000000000000000d6
:1050d80000000000000000000000000000000000c8
:1050e80000000000000000000000000000000000b8
:1050f80000000000000000000000000000000000a8
:105108000000000000000000000000000200000095
:105118000200000000000000000000000000000085
:105128000000000000000000000000000000000077
:105138000000000000000000000000000000000067
:105148000000000000000000000000000000000057
:105158000000000000000000000000000200000045
:105168000200000000000000000000000000000035
:105178000000000000000000000000000000000027
:105188000000000000000000000000000000000017
:105198000000000000000000000000000000000007
:1051a80000000000000000000000000002000000f5
:1051b80002000000000000000000000000000000e5
:1051c80000000000000000000000000000000000d7
:1051d80000000000000000000000000000000000c7
:1051e80000000000000000000000000000000000b7
:1051f80000000000000000000000000002000000a5
:105208000200000000000000000000000000000094
:105218000000000000000000000000000000000086
:105228000000000000000000000000000000000076
:105238000000000000000000000000000000000066
:105248000000000000000000000000000200000054
:105258000200000000000000000000000000000044
:105268000000000000000000000000000000000036
:105278000000000000000000000000000000000026
:105288000000000000000000000000000000000016
:105298000000000000000000000000000200000004
:1052a80002000000000000000000000000000000f4
:1052b80000000000000000000000000000000000e6
:1052c80000000000000000000000000000000000d6
:1052d80000000000000000000000000000000000c6
:1052e80000000000000000000000000002000000b4
:1052f80002000000000000000000000000000000a4
:105308000000000000000000000000000000000095
:105318000000000000000000000000000000000085
:105328000000000000000000000000000000000075
:105338000000000000000000000000000200000063
:105348000200000000000000000000000000000053
:105358000000000000000000000000000000000045
:105368000000000000000000000000000000000035
:105378000000000000000000000000000000000025
:105388000000000000000000000000000200000013
:105398000200000000000000000000000000000003
:1053a80000000000000000000000000000000000f5
:1053b80000000000000000000000000000000000e5
:1053c80000000000000000000000000000000000d5
:1053d80000000000000000000000000002000000c3
:1053e80002000000000000000000000000000000b3
:1053f80000000000000000000000000000000000a5
:105408000000000000000000000000000000000094
:105418000000000000000000000000000000000084
:105428000000000000000000000000000200000072
:105438000200000000000000000000000000000062
:105448000000000000000000000000000000000054
:105458000000000000000000000000000000000044
:105468000000000000000000000000000000000034
:105478000000000000000000000000000200000022
:105488000200000000000000000000000000000012
:105498000000000000000000000000000000000004
:1054a80000000000000000000000000000000000f4
:1054b80000000000000000000000000000000000e4
:1054c80000000000000000000000000002000000d2
:1054d80002000000000000000000000000000000c2
:1054e80000000000000000000000000000000000b4
:1054f80000000000000000000000000000000000a4
:105508000000000000000000000000000000000093
:105518000000000000000000000000000200000081
:105528000200000000000000000000000000000071
:105538000000000000000000000000000000000063
:105548000000000000000000000000000000000053
:105558000000000000000000000000000000000043
:105568000000000000000000000000000200000031
:105578000200000000000000000000000000000021
:105588000000000000000000000000000000000013
:105598000000000000000000000000000000000003
:1055a80000000000000000000000000000000000f3
:1055b80000000000000000000000000002000000e1
:1055c80002000000000000000000000000000000d1
:1055d80000000000000000000000000000000000c3
:1055e80000000000000000000000000000000000b3
:1055f80000000000000000000000000000000000a3
:105608000000000000000000000000000200000090
:105618000200000000000000000000000000000080
:105628000000000000000000000000000000000072
:105638000000000000000000000000000000000062
:105648000000000000000000000000000000000052
:105658000000000000000000000000000200000040
:105668000200000000000000000000000000000030
:105678000000000000000000000000000000000022
:105688000000000000000000000000000000000012
:105698000000000000000000000000000000000002
:1056a80000000000000000000000000002000000f0
:1056b80002000000000000000000000000000000e0
:1056c80000000000000000000000000000000000d2
:1056d80000000000000000000000000000000000c2
:1056e80000000000000000000000000000000000b2
:1056f80000000000000000000000000002000000a0
:105708000200000002000000020000000200000089
:105718000200000002000000020000000200000079
:105728000200000002000000020000000200000069
:105738000200000002000000020000000200000059
:105748000200000002000000020000000200000049
:105758000401000010010000120100001e010000f9
:1057680020010000020100000c0100000e010000f1
:105778001a0100001c0100000001000006010000e1
:105788000a01000014010000180100009400000044
:1057980094000000940000009600000096000000ad
:1057a80084000000840000008400000086000000df
:1057b80086000000080000008000000000010000d2
:1057c8000008000000100000840100008a010000a9
:1057d8009001000096010000800100008601000091
:1057e8008c01000092010000000300000608000080
:020000040000fa
:1057f8001c6c00000cf70000476b0000cc0c00008c
:10580800dbaa0000aaea0000000000000040000037
:10581800000000000000000000000000e4d70000c5
:105828006d7d0000fdff0000159c0000b1760000b2
:10583800feff00008c3e00005e520000ffff0000eb
:1058480051ed000087640000ffff00005ef10000da
:10585800b1720000ffff00004a2f0000cc7d00005d
:10586800ffff00004b860000db4600000000000040
:10587800ad5d0000f04f0000000000005432000051
:10588800da5400000000000054cc0000e557000086
:10589800000000008e210000f65900000000000002
:1058a800ee150000735b000000000000aa7e0000f7
:1058b800925c00000000000051ed000087640000c9
:1058c8000000000069840000d1420000deff0000f3
:1058d80051ed0000876400000100000069840000a9
:1058e800d1420000dfff0000fcf10000654b000022
:1058f8000200000069a4000043660000e3ff000006
:1059080051ed000087640000020000006984000077
:10591800d1420000e0ff0000a5e80000a97d0000da
:105928000200000060790000e1540000e2ff00007e
:10593800fcf10000654b00000300000069a40000b2
:1059480043660000e4ff0000101000001111000081
:1059580012120000131300001314000014150000a5
:10596800151500001616000016170000171700007e
:105978001818000018190000191900001a1a000058
:105988001a1b00001b1b00001b1c00001c1c000035
:105998001d1d00001d1d00001e1e00001e1e000013
:1059a8001f1f00001f1f0000690b000000000000ff
:1059b800ddbf0000fcff00008588000088000000b3
:1059c8005555000055f5000000000000004000009b
:1059d8006e66000000000000503f0000e9ff000074
:1059e8008aaa0000aa0200000100000000e00000ee
:0859f800000000000040000067
:020000040000fa
:105a00000200fa000002eb00040f78001d003700ce
:105a10001e027800c322dd000480200004824200c0
:105a200005532700050a78001e027800c322dd0016
:105a300024802000848242000042eb00844a7800e7
:105a40001e02780084024200c46f2a0004824200d1
:105a5000940278001e0278004323dd004480200079
:105a600004024300050a78001e027800c322dd000c
:105a700064802000048242008082eb00050a7800e6
:105a80001e0fe800742520009e027800848f5200cb
:105a9000dfff36000080fa00000006001000fa0068
:105aa000889fbe0080047800210798003207980084
