:020000040000fa
:080000000002040000000000f2
:020000040000fa
:10000800680300006803000068030000680300003c
:10001800680300006803000068030000680300002c
:10002800680300006803000068030000680300001c
:10003800f62700006803000068030000680300005a
:1000480024440000680300006803000068030000ff
:100058006803000068030000fe2700006803000032
:1000680068030000680300006803000068030000dc
:1000780068030000680300006803000068030000cc
:1000880068030000680300006803000068030000bc
:10009800c820000068030000b628000058280000a7
:1000a800680300006803000068030000a80200005d
:1000b800680300006803000068030000680300008c
:1000c800680300006803000068030000680300007c
:1000d800680300006803000068030000680300006c
:1000e800680300006803000068030000680300005c
:1000f800680300006803000068030000680300004c
:10010800680300006803000068030000680300003b
:10011800680300006803000068030000680300002b
:10012800680300006803000068030000680300001b
:10013800680300006803000068030000680300000b
:1001480068030000680300006803000068030000fb
:1001580068030000680300006803000068030000eb
:1001680068030000680300006803000068030000db
:1001780068030000680300006803000068030000cb
:1001880068030000680300006803000068030000bb
:1001980068030000680300006803000068030000ab
:1001a800680300006803000068030000680300009b
:1001b800680300006803000068030000680300008b
:1001c800680300006803000068030000680300007b
:1001d800680300006803000068030000680300006b
:1001e800680300006803000068030000680300005b
:0801f800680300006803000029
:020000040000fa
:10020800680300006803000068030000680300003a
:10021800680300006803000068030000680300002a
:10022800680300006803000068030000680300001a
:10023800f627000068030000680300006803000058
:1002480024440000680300006803000068030000fd
:100258006803000068030000fe2700006803000030
:1002680068030000680300006803000068030000da
:1002780068030000680300006803000068030000ca
:1002880068030000680300006803000068030000ba
:10029800c820000068030000b628000058280000a5
:1002a800680300006803000068030000a80200005b
:1002b800680300006803000068030000680300008a
:1002c800680300006803000068030000680300007a
:1002d800680300006803000068030000680300006a
:1002e800680300006803000068030000680300005a
:1002f800680300006803000068030000680300004a
:100308006803000068030000680300006803000039
:100318006803000068030000680300006803000029
:100328006803000068030000680300006803000019
:100338006803000068030000680300006803000009
:1003480068030000680300006803000068030000f9
:1003580068030000680300006803000068030000e9
:1003680068030000680300006803000068030000d9
:1003780068030000680300006803000068030000c9
:1003880068030000680300006803000068030000b9
:1003980068030000680300006803000068030000a9
:1003a8006803000068030000680300006803000099
:1003b8006803000068030000680300006803000089
:1003c8006803000068030000680300006803000079
:1003d8006803000068030000680300006803000069
:1003e8006803000068030000680300006803000059
:0803f800680300006803000027
:020000040000fa
:100400008fc620000eff23000e01880000000000b0
:1004100000012000200288000c000700e02c2400ce
:100420000100200011000700000020000000e00093
:10043000020032000000020000000000381c020030
:10044000000000000040da000000fe004440a90067
:10045000000a20000000e00003003200000020003d
:10046000a00188004440a800000006009101880017
:10047000800078000000eb0015003700e2804000ab
:1004800032a0b4009101ba00e280400032a0b40072
:100490009102ba00e280400032a0b4000002eb00fa
:1004a000472bde00f507b200602ce10004003a00a3
:1004b0000059eb008301e900fdff3e000400370016
:1004c0006128e100010032000082eb000400070017
:1004d0001101ba000200e000e8ff3a000000060047
:1004e0003159ba008301e9000c0032002159ba00e9
:1004f0008301e900080032000400e00003003a0034
:10050000e280400032a0b400f5ff370011d9ba00f4
:100510008301e900faff3a008100e800e180400031
:1005200032a0b40000000600f20b0400000000003e
:10053000be10040000000000280c040000000000b1
:1005400042110400000000009411040000000000ab
:10055000801f7800849fbe000600fa008860a90012
:100560005420800062026200e00f5200540032000a
:100570000a24a900052180000410200004826200e2
:10058000e00f520021003200740482004822de0095
:100590007f4262000482fb006622b9008402780078
:1005a000e4a3200004824200240798002e02900059
:1005b00014029000140798000042eb00044f7800ea
:1005c0000c0037001e4078000082fb00e60242006b
:1005d0000408240004824200144278009e02900025
:1005e000844a78001e0290000402e8001407980074
:1005f0001e4fe8002e029000444290009e4f520091
:10060000f0ff3e002104a9002d00370005218000e5
:100610000420200004826200e00f52002800320013
:1006200084aa200014427800e04f520023003a00d0
:10063000640924001442780004407800a0eab7005e
:10064000740924001442780004407800a1eab7003d
:10065000840924001442780004407800a2eab7001c
:10066000940924001442780004407800a3eab700fb
:10067000a40924001442780004407800a4eab700da
:10068000b40924001442780004407800a5eab700b9
:10069000c40924001442780004407800a6eab70098
:1006a000d40924001442780004407800a7eab70077
:1006b00014c0b30004407800a8eab7002124a900c0
:1006c0000080fa004f02be004f0078000040060094
:1006d0000040da000000fe0003f0a200889fbe0088
:1006e0008a9fbe008c1f78001d0107002401330083
:1006f0006450e1004f0032006420e10052003200fb
:1007000003826c0007003b000905d0000306d000ff
:10071000820f54000c065d00020039000200320016
:1007200089017800030678008582550004003d00a9
:100730000003fd008103fd008502ea008b85420075
:10074000840f720002003b0060001000e08018007f
:100750006011b8000005eb007a28e1000a003900ba
:1007600006007800c75ddd00f707b20087807500de
:100770002d003700828171000a0178006105600058
:100780008180d1000080d3008502e900f9ff3b00a1
:10079000060440008784480002003b006004140007
:1007a000e0841c000988a300070032008a817100e0
:1007b00082817100610164008904d1000884d30042
:1007c0008b05e800170037000978a30013003a00f2
:1007d0000b00e000130034008b05e900080444001e
:1007e00089844c000a4474000978a3000d003a0083
:1007f0000b00e000070034008b05e900080444000a
:1008000089844c0001003a000b0020000978a30005
:10081000f7ff32000001eb00020037008281710017
:100820000a017800930007000cf0a70001f0a00077
:10083000dc0037006420e10002003a00838f6c0086
:10084000dc0033000801be000200be00d500370006
:100850000081eb000e013700889fbe008a9fbe001a
:100860008c1f7800be000700c500330003866c00b3
:100870006450e1002e0032006420e10033003200b9
:100880006150e1002f0032006120e10031003200b0
:1008900085855500eb07b000090020000804200002
:1008a000050037000804440089844c000a00310028
:1008b0000603430087834b000001530081815b00e6
:1008c000f8ff33000203be000800a0000804440043
:1008d00089844c00f6ff3900c639dd0083017300be
:1008e00001003200130020008904d1000884d300e5
:1008f0000998a300050032000800a7000300a0002b
:100900008904d1000884d3008b05e8008904d10054
:100910000884d3000001eb000281d20055000700db
:1009200001f0a1000cf0a70001f0a0009d0037002d
:100930006420e1009f0032000801be000200be00fa
:10094000f7ff37006120e1009a0032006000b80034
:10095000f3ff37000000200001f82700f0ff370008
:100960001400200082023700f4ff2f0080023700bd
:100970000001be00650007000470a70003f0a1009d
:100980006509b100160032000d0035006828e1004d
:1009900006003500f0ff2f00f1ff27000300e00004
:1009a00013003b000100280000000500000040008b
:1009b000818048008502e900fcff3a00080037000a
:1009c000f88f420002003c008000eb0000000500b0
:1009d0008100d1000080d3008502e800fcff3a00ce
:1009e0000300e00002003b0060001000e0801800ff
:1009f000000006000001be00440007000470a700cc
:100a000003f0a10003f8a30013003a006509b10048
:100a100010003200090035006928e10002003500ad
:100a2000010028000000050000004000818048000f
:100a30008502e900fcff3a0000000600f88f420042
:100a4000050035008100d1000080d3008502e80058
:100a5000fcff3a00000006008000eb0000000500eb
:100a60004f89de00820178005c0237006011b80017
:100a70006a02370081002000618055000b003d00b4
:100a80000b00200061fe2f000100e1001d0034007a
:100a900082817100610164008904d1000884d3005f
:100aa0000000e800faff3a007100200061006400d5
:100ab000030070000200600009003200610444007d
:100ac000e0844c000988a500050032008b05e80091
:100ad0006808e10002003a008904d1000884d300cc
:100ae000f20f20000258e10005003d00c75ddd0067
:100af000f907b20089807500080078000000060040
:100b00000bf827008b00780000000500c70ade0004
:100b1000f107b200f50fb20008003200e1cf420049
:100b2000020032000170a00024000500810f700057
:100b3000010032000408050044000500810f700028
:100b400002003a00140005008502e90000004000a0
:100b500081c04800fcff3b000170a000240005009c
:100b60000004be00e9ff07000003be000405be004c
:100b70000200be00e5ff0700844f7500000006007c
:100b80000200be006450e100050036006420e10070
:100b9000020036000968a30001003a000800be0008
:100ba0000160a0004f0678004f05be004f04be0054
:100bb00000000600f0ff2f00f1ff2700f9ff3700cb
:100bc000889fbe008a9fbe008c1f7800e4ff07004c
:100bd000ebff330003866c006450e1002400320018
:100be0006420e100270032006150e1002200320061
:100bf0006120e100210032008b854200eb07b1004b
:100c00000134b800003ab8000804420089844a0060
:100c1000013ab8000030b8008880400009014a005d
:100c200004003300000040008180480002014900b8
:100c30008b05e900c909dd00830170000100320065
:100c400013002000c814de004814dd004709de0050
:100c50001200b200c808de000884700085ff07009b
:100c600001f0a1000cf0a70001f0a000cdff3700bb
:100c70006120e100cfff32000801be000200be008b
:100c8000f7ff37006150e100fcff3a00c9ff370071
:100c9000889fbe008a9fbe008c9fbe0082057800a0
:100ca0000004be0099ff07000800be006420e100b8
:100cb0000700390002003a00f1ff2700f0ff2f0083
:100cc0000160a00012022000326388005500370046
:100cd0006120e10003003a000b00a70001f82300a7
:100ce0005000370001f0a1000200210093642400ad
:100cf0001bff07000800be0004003500b2fd200005
:100d0000930c2400f40107000004be000005eb0072
:100d10000b00a6004f0dde0001f0a1000004be0094
:100d200032982f0023ea2300a5ff07000001eb0003
:100d300003f023000b00a70003f8230067fe070061
:100d40000bff07000000a7000a00a20044ff0700f5
:100d50000b00e000030032000200200003f023003b
:100d60005dfe070001f0a2000006be0002002000a8
:100d70009304240092ff07000801be0057fe0700fd
:100d8000809fbe000c00be0022a22a00d3a7230031
:100d90008bff07004f01be0050fe07000004be009d
:100da00001f0a1000200200003982300ecfe0700e0
:100db0000800be00190035000001be0080ff0700da
:100dc0000006be00b2c52900e36223007cff0700d5
:100dd00022222b00f3942b0040fe07000c01be00e2
:100de00077ff0700e273280083c023003bfe070063
:100df0000c01be0072ff070042aa2a00a3e22b00ea
:100e000036fe07000c01be006dff07000801be00a2
:100e10006bff07000801be0030fe07000a00a700b4
:100e200001f0a2004f06be004f05be004f04be00f9
:100e3000000006000001eb0095ff37006022b800bb
:100e4000060220000000d0008180d2000482d2007f
:100e50008582d2000000a0000202520083825a0064
:100e6000030031000202420083824a000000a10018
:100e70000603e900f3ff3a0000000600889fbe0069
:100e80008a9fbe003004be002005be00040444005a
:100e900085844c0006054d0087854d000898be00ee
:100ea0000a90be000440e10005c8e10006d0e10060
:100eb00007d8e10002003100680040001008e80097
:100ec0004f05be004f04be00000006001000fa00ef
:100ed000889fbe008a9fbe000605be000404be00b7
:100ee0003002be002003be00c4b79f00d5b79f00ec
:100ef000e6b79f00f7b79f000802520089825a00a8
:100f00000a035b008b835b0084bf9f0095bf9f003b
:100f1000a6bf9f00b7bf9f000498be000698be0002
:100f2000110020004fb29700dfb297006fb3970017
:100f3000ffb397000820e10009a8e1000ab0e10032
:100f40000bb8e100010039008000eb0010881000b0
:100f50004f05be004f04be000080fa0000000600ee
:100f60001400fa00889fbe008a9fbe008c9fbe00be
:100f70003f0007000605be000404be000006eb00ab
:100f8000ccb79f00bcb79f00acb79f009cb79f0039
:100f90008cb79f000d0420004fb39700bfb297009d
:100fa000860343002fb29700e00f530004003d007a
:100fb0003d0007000f004000b0ff070003003700ae
:100fc000390007000f004000c0ff0700cfb29700b4
:100fd00095bf9f00e08f5200090035002b000700ed
:100fe00014002000050020006033b80000007200eb
:100ff0008180720002017300838173001c0007006e
:101000000c06e8008d0f5600e3ff3a001fba970068
:10101000e00f520005003d000802be000a03be00ba
:1010200000fe2f000f00400094ff07004faa97001a
:10103000e00f520008003a000fb497009fb49700e9
:101040002fb59700bfb59700d8b79f00e9b79f00ad
:10105000fab79f008bbf9f000c0007004f06be0031
:101060004f05be004f04be000080fa0000000600dd
:10107000010007000000060090b79f00a1b79f0085
:10108000b2b79f00c3b79f00000006000100070031
:10109000000006001fb09700afb097003fb1970067
:1010a000cfb19700000006004f2bde0087037300ce
:1010b000a7b79f004f23de008582420085027300a0
:1010c00095b79f00ffaa97004f2bde000402420055
:1010d0000402730084b79f006faa97004f23de00bd
:1010e0008582420085027300f5af9f00e9ff07008b
:1010f0004f18de000402420000027200e4af9f00bd
:10110000e4ff070000004000818048000201490020
:1011100083814900d8ff07000802be000a03be0011
:1011200000fe2f0000000600881f78001800200035
:10113000881f78008aff07008f87e9004f04780036
:1011400000000600801feb0085ff07008f87e90085
:1011500000000600889fbe008a9fbe00e00f50007e
:10116000e08f5800e00f5900e08f59000c003d005f
:101170006044b8006055b8000000540081805c00f5
:1011800002015d0083815d0018002000150007004a
:1011900008003d00180007000004eb0005003700c0
:1011a0000004eb000f00070002003d0012000700e2
:1011b00018002000dcff0700e00f5400060032009a
:1011c0006022b8006033b8000000520081805a00ed
:1011d00002015b0083815b004f05be004f04be002f
:1011e00000000600e00f5200e08f5a00e00f5b00a5
:1011f000e08f5b00000006006044b8006055b80056
:101200000402540085825c0006035d0087835d0054
:1012100000000600889fbe008a9fbe008c1f7800d9
:10122000e00f5000e08f5800e00f5900e08f5900a8
:101230000d003d006044b8006055b8000000540047
:1012400081805c0002015d0083815d001c00200044
:101250000820e10009a8e1000ab0e1000bb8e100b4
:101260000d003d00080037000006eb00e00f5200c3
:10127000e08f5a00e00f5b00e08f5b0006003d004e
:101280006044b8006055b8000402540085825c00d8
:1012900006035d0087835d00aaff0700e00f56008c
:1012a000060032006022b8006033b800000052002f
:1012b00081805a0002015b0083815b004f06780049
:1012c0004f05be004f04be0000000600889fbe0010
:1012d0008a9fbe008c1f78000006eb00e00f5000d4
:1012e000e08f5800e00f5900e08f590007003d00e3
:1012f0006044b8006055b8000000540081805c0074
:1013000002015d0083815d001c002000e00f52009f
:10131000e08f5a00e00f5b00e08f5b0007003d00ac
:101320006044b8006055b8000402540085825c0037
:1013300006035d0087835d000c00a200b700070074
:10134000e00f5600060032006022b8006033b8009b
:101350000000520081805a0002015b0083815b0023
:101360004f0678004f05be004f04be000000060087
:10137000889fbe008a9fbe00841f7800f8fd07008a
:101380004f00780011003300f0ff2f00838f6c00b6
:1013900006003b00040565000a00a70008003700ae
:1013a00009f0a6001000200008003700820f54004a
:1013b000838f5c00030039001000200001003e0014
:1013c0000000200009f0a7000000ea004f05be0061
:1013d0004f04be000000e00000000600881f7800f7
:1013e000030478000300e00007003d0060001000e7
:1013f000e080180060011900e081190002003b0044
:1014000001f02d00030037000400070008f0a700da
:1014100001f0a0004f04780000000600889fbe0085
:101420008a9fbe0000827000040271000482710075
:10143000260032000004be000200be006011b800a9
:101440006b092000950220000182cf000a003900bc
:101450000541b1000082cf00070039000541b1000d
:101460000982cf00040039000541b1000882cf0095
:10147000010039000541b10005425200120032005e
:101480000a003b0082817100610164008100d1008b
:101490000080d3008984d3000884d3008b05e80042
:1014a0000442e800f7ff3a00070037000804440050
:1014b00089844c0000004800818048008b05e900c9
:1014c0000442e900f9ff3a006afd07004f05be003b
:1014d0004f04be000000060004002000000037009a
:1014e000889fbe008a9fbe008c1f78004f26dd00bb
:1014f0009bfd0700a2fd33006120e10043003200a4
:101500006250e10041003e003e0039006420e100ed
:101510003c003200058255000f003b000402e80049
:1015200038003a00800f5300818f5b003500340093
:101530000800be0003f0a10001f0a60003f0a00027
:101540000cf0a70065fc070096fd3700060343007a
:1015500087834b000c4646000005530081855b00e5
:10156000020033000a03be000c00a0000402e900e0
:10157000f6ff3b00850578000602430087824b009a
:1015800004003a006000b80009f0a70001f0a000d4
:1015900084fd37000002520081825a000704e000f7
:1015a000040033000603430087834b008b05e900ea
:1015b000faff3700090578000604be000203be00ea
:1015c0006011b8002bfd0700e00f5200e08f5a00b9
:1015d0000700350002003c000c08a30004003200a4
:1015e0000601be0003f0a0000cf0a7003bfc0700c2
:1015f0000a85680001f0a1000af0a70001f0a00030
:1016000068fd37000800be0066fd370010022000ac
:101610000cf0a6003063880066fd3700889fbe008e
:101620008a9fbe008c9fbe000404b8000506b80067
:101630008904460060854e000606b8000a0546008b
:10164000e0854e000706b8008b054600040eb80082
:10165000890446000a854e00e0854d00050eb8005d
:101660000a0546008b854e00060eb8008b05460025
:101670000416b8000a0546008b854e000516b80012
:101680008b054600041eb8008b0546000800be000e
:101690000a01be004f06be004f05be004f04be004b
:0416a0000000060040
:020000040000fa
:1016a4000401000010010000120100001e010000ee
:1016b40020010000020100000c0100000e010000e6
:1016c4001a0100001c0100000001000006010000d6
:1016d4000a01000014010000180100009400000039
:1016e40094000000940000009600000096000000a2
:1016f40084000000840000008400000086000000d4
:1017040086000000080000008000000000010000c6
:101714000008000000100000f4010000e8030000cd
:1017240000000000c4090000e803000008070000ee
:101734000000000000000000000000004e650000f2
:1017440077540000617300006b000000414f0000fb
:101754004b0000004f4200005354000000400000c2
:1017640000450000525200004f52000040000000ab
:10177400840100008a01000090010000960100002d
:1017840080010000860100008c010000920100002d
:1017940000030000060800002002000030020000e0
:1017a4002802000038020000220200003202000079
:1017b4002402000034020000260200003602000069
:1017c4000100000000000000000000000100000013
:1017d40000000000000000000000000049000000bc
:020000040000fa
:1017e4001600fa008002780071079800020f980032
:1017f400130f9800240f980014002000040f7800a1
:101804000002eb00140798000002eb002407980084
:101814000002eb00340798000002eb004407980034
:101824000002eb00540798000002eb0064079800e4
:1018340006000900be1a7800e500b100ee00b10010
:10184400050078000080fa00000006001c00fa0081
:10185400881f780000047800210f9800320f980048
:10186400430f9800540f980024be28000600090076
:10187400341f7800ee00b1000082eb00740798007a
:101884000082eb00040f98000082eb00140f980014
:10189400ae0a90007e029000848f520002003a004b
:1018a4000002eb005461880054618000e00f520094
:1018b40003003200e20f520007003200100037002c
:1018c400dc1a070024002000546188002400200052
:1018d400040f78000a003700481a07000002780055
:1018e400e10f520005003a000002eb00040f7800fb
:1018f4000002eb0054618800010037000000000082
:10190400060009003e1c7800e800b100ee00b100ba
:10191400080078004f0478000080fa0000000600f8
:101924000e00fa001007980021079800320798006b
:10193400430798005407980065079800be0290007a
:101944006e029000048f520002003700041f2f0023
:101954001e0f4200847020009e027800848f520083
:10196400faff3c000200370004e120001e0f420091
:10197400848f2f009e027800848f5200faff350076
:101984009e0290004e02900004825200f30f420027
:10199400170035009e0290004e029000048252000f
:1019a400f30f520012003c00ae0290005e02900061
:1019b40004825200f30f42000d003500ae02900085
:1019c4005e02900004825200f30f520008003c00b3
:1019d4001e027800fd0f4200050035001e0278004b
:1019e400fd0f520002003c001400200001003700eb
:1019f4000002eb00040078000080fa0000000600fa
:101a04000c00fa00000f78001107980022079800d4
:101a14003307980044079800550798009e02780001
:101a24003e02900004825200f30f42001100350080
:101a34009e0278003e02900004825200f30f52008e
:101a44000c003c009e0290004e0290000482520062
:101a5400f30f4200070035009e0290004e029000f2
:101a640004825200f30f520002003c0014002000d4
:101a7400010037000002eb00040078000080fa0047
:101a8400000006001400fa0070079800010f980087
:101a9400120f980024002000040f78000082eb004d
:101aa400440798000082eb00540798000082eb0082
:101ab40064079800fe0290004e029000848f52004a
:101ac40005003a000002eb00446188003400200065
:101ad400040f780066003700446180000500200090
:101ae4003600200007002000860f5200878f5a001e
:101af40059003e0004600100030037000b0037006a
:101b0400370037004c0037007e0090008e089000ac
:101b14001e099000391a070014002000446188004f
:101b240024002000040f780051003700b319070087
:101b340000027800e30f520005003e00e20f52005d
:101b44000a003100e10f5200070032001e00370086
:101b5400e40f52000d003200a40fb100e40f520054
:101b640019003e00040037001c0037002400200048
:101b74004461880019003700340020004461880063
:101b84000002eb00040f78001400370083190700eb
:101b9400000000009919070000027800e00f5200cd
:101ba400fcff3a00751907000000000093190700b4
:101bb40000027800e10f5200fcff3a000002eb0043
:101bc4004461880005003700340020004461880027
:101bd4000002eb00040f780000000000240037002e
:101be4008619070000027800e10f52001d003a0038
:101bf40034002000446188000e82e800040078006c
:101c04006e1907009e0190002e029000be02900003
:101c14007e0090008e0890001e09900040ff07008f
:101c240000027800e00f520010003a000002eb00be
:101c3400040f78000e0037001e027800e00f5200f7
:101c44000200320034002000040f78000002eb0090
:101c540044618800060037002400200044618800a5
:101c640003003700000000000100370000000000fe
:101c74001e027800040078000080fa0000000600cc
:101c84001400fa00889fbe008a9fbe007007980067
:101c9400010f9800120f980024002000040f780010
:101ca4003461800005002000360020000700200079
:101cb400860f5200878f5a009d003e000460010089
:101cc400030037005e0037007e00370093003700c2
:101cd4006802470004007800381907004e0290009b
:101ce400cfa2de000400be005cfb07000004be00bf
:101cf4001e0a9000cfa2de000400be0057fb0700be
:101d04000005be006e029000cfa2de000400be00fb
:101d140052fb07000002be0002fd200093042400d1
:101d24000400be00a5fb07000002be000200200064
:101d3400134e24000400be00c6fa07000002be00d1
:101d44000400be00c1fa07000002be000401be0088
:101d54000a00be0099fb07000002be000401be0099
:101d64000800be005cfa07000002be000400be00ca
:101d7400fefa07000002be0004027800440798003f
:101d84005e029000cfa2de000400be0033fb070019
:101d94000004be001e0a9000cfa2de000400be00b4
:101da4002efb07000005be006e029000cfa2de00ed
:101db4000400be0029fb07000002be0002fd200053
:101dc400930424000400be007cfb07000002be0054
:101dd40002002000134e24000400be009dfa0700f8
:101de4000002be000400be0011fc07000002be0099
:101df4000401be000a00be0070fb07000002be0022
:101e04000401be000800be0033fa07000002be0051
:101e14000400be00d5fa07000002be0004027800e8
:101e2400540798001e0990008e0890007e009000d0
:101e3400381907001400200034618800440037007a
:101e4400ee18070000027800e20f5200050032008d
:101e5400e40f520006003200e10f520013003a0072
:101e64001700370024002000346188001400370074
:101e7400ca18070000000000e018070000027800fc
:101e8400e00f5200fcff3a00bc18070000000000fd
:101e9400da18070000027800e10f5200fcff3a0054
:101ea4000002eb0034618800050037003400200094
:101eb400346188000002eb00040f78000000000089
:101ec40023003700cd18070000027800e10f52000c
:101ed4001c003a0034002000346188000e82e800bf
:101ee40004007800b51807009e0190002e029000af
:101ef400be0290004e009000de0090006e01900043
:101f040087fe070000027800e00f52000f003a003d
:101f14000002eb00040f78000d0037000002eb0014
:101f24003461880034002000040f78000800370072
:101f340024002000040f780024002000346188006d
:101f4400030037000000000001003700000000001b
:101f54001e027800040078004f05be004f04be0046
:101f64000080fa00000006001400fa00889fbe00fa
:101f740070079800010f9800120f98003400200099
:101f8400040f7800740037002461800005002000ed
:101f94003600200007002000860f5200878f5a0069
:101fa40063003e000460010003003700290037008d
:101fb40049003700630037006802470004007800d6
:101fc4007e1807006e029000cfa2de000400be005f
:101fd400a2fa07000004be001e0a9000cfa2de0091
:101fe4000400be009dfa07000002be0002fd2000ae
:101ff400930424000400be00f0fa07000002be00af
:1020040002002000134e24000400be0011fa070051
:102014000002be000401be000800be00aef90700c5
:102024000002be000400be0050fa07000002be0019
:1020340004027800640798001e0990008e0890003e
:102044007e009000d018070014002000246188004e
:10205400410037006918070000027800e20f5200bf
:1020640005003200e40f520006003200e10f520076
:1020740013003a0017003700240020002461880070
:102084001400370045180700000000005b18070023
:1020940000027800e00f5200fcff3a0037180700f6
:1020a400000000005518070000027800e10f5200fc
:1020b400fcff3a000002eb002461880005003700b1
:1020c40034002000246188000002eb00040f780033
:1020d40000000000200037004818070000027800c4
:1020e400e10f520019003a003400200024618800f6
:1020f4000e82e80004007800301807009e0190006a
:102104002e029000be0290004e009000de0090006f
:102114006e01900002fe070000027800e00f5200fa
:102124000c003a000002eb00040f78000a003700ac
:1021340024002000040f780024002000246188007b
:102144000500370000000000030037000000000015
:10215400010037000000000024618000e30f5200fa
:1021640089ff3a001e027800040078004f04be0084
:102174000080fa00000006001400fa00881f7800ae
:1021840000047800010f78001207980023079800d4
:1021940034079800e45c8000e10f520025003a0007
:1021a400c0608000d1608000e2608000f360800045
:1021b4000461800015618000c118070068024700af
:1021c400040078001c0e07006802470085c1200047
:1021d400b41a7800a4127800e48242006402420037
:1021e400b41a7800a4127800e48242006402420027
:1021f400b41a7800a4127800e48242006402420017
:1022040000c4290001002000721b0700c060800088
:10221400d1608000e2608000f3608000046180008f
:10222400156180008b18070000c4290001002000fc
:10223400681b07001e02be00245d8800355d88000f
:10224400ae029000455d8800205d8000315d800015
:10225400425d80000bfe070000027800e45c880009
:10226400c4b9200006000900341c7800e800b1005d
:10227400080078004f0478000080fa00000006008f
:102284000e00fa00881f78000004780031079800d7
:102294004207980053079800640798006e02900064
:1022a400e00f520003003200e10f5200040032003c
:1022b4001400370034002000745c880011003700db
:1022c40024002000745c88000e007800bb1707000f
:1022d4009e0178001e029000ae0290003e00900025
:1022e400ce0090005e0190008dfd07000002780092
:1022f400e00f52000300320034002000745c8800b8
:1023040000000000e4b8200006000900341c780036
:10231400e800b100080078004f0478000080fa005b
:10232400000006000e00fa00881f78000004780000
:1023340031079800420798005307980064079800f3
:102344006e029000e10f520009003200e10f5200ca
:1023540003003900e20f5200230032002700370047
:10236400fd1a070034002000045c880023003700b5
:1023740024002000045c88000e0078008f170700fa
:102384009e0178001e029000ae0290003e00900074
:10239400ce0090005e01900061fd0700000278000d
:1023a400e00f5200100032006d1a07000000000018
:1023b400621a070000027800e00f5200fcff3a00a6
:1023c400d422a8006b1a0700000000005b1a070063
:1023d40000027800e00f5200fcff3a0034002000b5
:1023e400045c88000500370024002000045c880099
:1023f40034002000045c88000000000004b82000c1
:1024040006000900341c7800e800b10008007800d8
:102414004f0478000080fa00000006001800fa005b
:10242400889fbe008a9fbe008c1f780060079800ba
:1024340071079800020f9800130f9800240f98005a
:10244400350f98000002eb00040f780034002000e0
:102454001407980024002000240798000002eb00d1
:1024640034079800fe0290002e0a9000848f5200d8
:102474008d0032001e027800cfa2de000400be00f0
:1024840076f907000005be000e0a9000cfa2de0018
:102494000400be0071f907000002be00c2372c0020
:1024a40043ae23000400be00c4f907000002be00ce
:1024b4000400be00e5f807000002be0018c0b30027
:1024c4006011b8000400be0024f90700000278007f
:1024d400e00f5200010035000044eb00e04f5400cf
:1024e400150032000e0a9000cfa2de000400be00e8
:1024f4005af907000002be00c2372c0043ae230085
:102504000400be00adf907000002be000400be00d6
:10251400cef807000002be0005f0a2000200200071
:10252400134624000400be00a4f907000002be0004
:102534000404be00130037000e0a9000cfa2de0090
:102544000400be0045f907000002be00c2372c009b
:1025540043ae23000400be0098f907000002be0049
:102564000400be00b9f807000002be00020020000b
:10257400134624000400be0090f907000002be00c8
:102584000404be003e0a9000cfa2de000400be0098
:1025940032f907000002be00c2372c0043ae23000c
:1025a4000400be0085f907000002be000400be005e
:1025b400a6f807000002be001cc0b3006011b800fa
:1025c4000400be00e5f8070000027800e00f5200a6
:1025d400010035000046eb00e04f560014003200c5
:1025e4003e0a9000cfa2de000400be001bf90700e3
:1025f4000002be00c2372c0043ae23000400be001c
:102604006ef907000002be000400be008ff8070048
:102614000002be0005f0a2000200200013462400c0
:102624000400be0065f907000002be001200370076
:102634003e0a9000cfa2de000400be0007f90700a6
:102644000002be00c2372c0043ae23000400be00cb
:102654005af907000002be000400be007bf8070020
:102664000002be0002002000134624000400be0045
:1026740052f907000002be000401be000800be00bb
:1026840015f807000002be000401be000a00be00e7
:1026940011f807000002be000400be00b3f80700f2
:1026a4000002be00040f7800ee0290001e0a9000a3
:1026b400848f5200520032001e027800cfa2de0046
:1026c4000400be00e5f807000004be000e0a9000f6
:1026d400cfa2de000400be00e0f807000002be0046
:1026e400c2372c0043ae23000400be0033f90700b8
:1026f4000002be000400be00cdf907000002be00c7
:102704001ac0b3006011b8000400be0093f80700bb
:1027140000027800e00f5200010035000045eb0094
:10272400e04f5500180032000e0a9000cfa2de00e0
:102734000400be00c9f807000002be00c2372c0026
:1027440043ae23000400be001cf907000002be00d3
:102754000400be00b6f907000002be0005f0a200a6
:1027640002002000134624000400be0013f90700f1
:102774000002be000401be000400be00d6f707003c
:102784000002be00160037000e0a9000cfa2de0041
:102794000400be00b1f807000002be00c2372c00de
:1027a40043ae23000400be0004f907000002be008b
:1027b4000400be009ef907000002be0002002000d3
:1027c400134624000400be00fcf807000002be000b
:1027d4000401be000400be00bff707000002be00f3
:1027e4000401be000800be00bbf707000002be00e3
:1027f4000400be005df807000002be00040f78006c
:102804009e0278002e02900004aab9000402780007
:1028140004f0a7000402ea00be0290000482420011
:1028240034079800ee0290001e0a900004825200c1
:1028340044079800fe0290002e0a90000482520081
:10284400540798004e0290008402780005f0a70017
:102854008502ea005e02900004f0a7000402ea0088
:10286400848242001e02900004aab9000402780087
:10287400be02900004824200340798003e02900099
:10288400040078004f0678004f05be004f04be00d8
:102894000080fa00000006000a00fa0040079800d1
:1028a40024002000340798004e029000940278001f
:1028b400250798000002eb0014079800140020007c
:1028c400040f7800110037001e0278000402420051
:1028d400ce02900004824200940278002e029000fe
:1028e400848f5200080034001e02780014079800f8
:1028f4001e02780004024200ce02900004824200cc
:1029040094027800250798001e0fe8003e0290000c
:102914009e027800848f5200ebff35001e02900067
:10292400040078000080fa00000006000e00fa009f
:102934001007980021079800320798004307980071
:102944005407980065079800be0290006e0290003c
:10295400048f520002003700041f2f001e0f420094
:10296400847020009e027800848f5200faff3c009d
:102974000200370004e120001e0f4200848f2f0064
:102984009e027800848f5200faff35001e02780000
:1029940004f0a7000402ea00040f78001e02780085
:1029a400040078000080fa00000006000800fa0025
:1029b400000f780012079800230798003107980049
:1029c400d302a800d102a9001e0278008000eb0007
:1029d4001e019000ae019000040078004614070028
:1029e4001e027800b4628800020020000300240064
:1029f4003e009000871007003e029000c4628800e9
:102a04000080fa00000006000400fa00000f7800bd
:102a1400214798001e027800ae429000054a7800d3
:102a24001e02780015002000150298009e0278000e
:102a34000042eb00944298002e429000e24f420084
:102a440004003a009e02780014c0b300c442980007
:102a5400030037009e0278000042eb00c442980055
:102a64000080fa00000006000400fa00000f78005d
:102a7400214798000e82e8008401780012c0b30058
:102a840041c0b3001e0078001a0207000080fa005b
:102a9400000006000400fa00100798000e027800f7
:102aa4008401780022c0b30041c2b3001e0090002c
:102ab400c60207001e02900014029000e00f5200ac
:102ac40003003a000400200005f82b000a00370038
:102ad4001e027800cfa2de000400be00dff707006c
:102ae4000002be009258220063e923000400be00e5
:102af40032f807000002be000400be000080fa00a5
:102b0400000006000400fa00100798008e01780007
:102b140012c0b30081c1b3001e009000ab020700d5
:102b24001e02900014029000e00f520002003a00ce
:102b340000c2eb00044f78001e4278000482fb00c0
:102b4400040078000080fa00000006000400fa0087
:102b54001007980014c0b300044f78008e01780069
:102b640012c0b30081c1b3001e009000e101070050
:102b74000080fa00000006000400fa001007980024
:102b84000042eb00044f78008e01780012c0b300bd
:102b940081c1b3001e009000d60107000080fa0036
:102ba400000006000400fa00100798000e027800e6
:102bb4008401780022c0b30021c2b3001e0090003b
:102bc400820207001e02900014029000e00f5200df
:102bd40002003a000082eb00040f78001e02780025
:102be400040078000080fa00000006000400fa00e7
:102bf400100798000e0278008401780022c0b30008
:102c040061c0b3001e009000700207001e02900015
:102c140014029000e00f520002003a000082eb0020
:102c2400040f78001e027800040078000080fa0087
:102c3400000006000400fa00100798000e02780055
:102c44008401780022c0b30081c0b3001e0090004c
:102c54005e0207001e02900014029000e00f520072
:102c640002003a000082eb00040f78001e02780094
:102c7400040078000080fa00000006000400fa0056
:102c8400000f7800110798000e82e8008401780094
:102c940022c0b30061c0b3001e0078009501070094
:102ca4000080fa00000006000400fa00000f78001b
:102cb400110798000e82e8008401780022c0b30056
:102cc40081c0b3001e0078008a0107000080fa006a
:102cd400000006000400fa001007980014c0b300b6
:102ce400044f78008e01780012c0b30091c1b30084
:102cf4001e0090007f0107000080fa00000006001b
:102d04000400fa00100798000042eb00044f78001a
:102d14008e01780012c0b30091c1b3001e00900070
:102d2400740107000080fa00000006000800fa00a1
:102d340010079800220798003307980002002c001f
:102d4400f34724002e009000be0090009bf707007c
:102d54000002be0002002000633924000400be000b
:102d6400bcf607000002be000400be00fff6070028
:102d74000002be0004027800040f78009e0278006e
:102d8400f43f2000848f520003003400f43f2000fd
:102d9400040f7800050037001e027800e00f52008f
:102da40002003d000002eb00040f78000e027800e0
:102db4008401780022c0b300e1c1b3001e0090007a
:102dc4004c0107000080fa00000006000400fa002d
:102dd400100798008e01780012c0b300e1c2b3005e
:102de4001e009000f90107001e02900014029000da
:102df400e00f520002003a0000c2eb00044f7800da
:102e04001e4278000482fb00040078000080fa006f
:102e1400000006000600fa00200798000002eb00fc
:102e2400040f78000002eb00140798000e027800eb
:102e34008401780042c0b30061c0b3002e0090004a
:102e44002c0107000080fa00000006000600fa00ca
:102e5400200798000002eb00040f7800f43f2000e4
:102e6400140798000e0278008401780042c0b30071
:102e740061c0b3002e0090001e0107000080fa001c
:102e8400000006000400fa00000f78001107980003
:102e94009e029000f43f2000848f5200030034000f
:102ea400f43f200014079800060037009e029000ab
:102eb40014c02f00848f520002003d0014c02f0064
:102ec400140798001e029000e00f520004003d0019
:102ed4001e0290000540200004825200140798004e
:102ee4000e82e8008401780022c0b30001c2b3005e
:102ef4001e007800ff0007000080fa0000000600b2
:102f04000600fa00200798000042eb00044f780006
:102f14002e02900063024200144278006342420091
:102f24002447980024c0b3001447980009003700d0
:102f34001e4290000482fb00ae0290000482420014
:102f4400144278001e4f42001e4290000442e800e2
:102f5400144798009e4290002e42900084cf520065
:102f6400f3ff39001ecfea001e42780004407800c7
:102f74000080fa00000006000600fa00881f7800ae
:102f8400100798002107980014002000040f78000f
:102f94002e02900014427800e14f420005003a00ee
:102fa4002e0290000402e80014427800e14f42002f
:102fb400060032000002eb00040f78001e029000ad
:102fc4000504200015029800310037002e029000fd
:102fd4000482e800944278001e02900014427800b3
:102fe40084cf5200060032000002eb00040f780088
:102ff4001e029000050420001502980024003700ea
:103004002e02900063024200144278000482fb0006
:1030140063024200ae02900004824200144478002d
:103024002e009000b6ff070000427800844f540041
:10303400060032000002eb00040f78001e0290002c
:103044000504200015029800110037002e0290009c
:1030540064024200144278009e0290009442980058
:103064002e02900064024200144278000482fb00a5
:1030740070026200e00f5200050032000002eb0013
:10308400040f78001e02900005022000150298002b
:103094001e027800040078004f0478000080fa00d3
:1030a400000006001200fa00000f98000e0a9000bb
:1030b4001442780080c2eb004547980080c2eb00c0
:1030c400554798006447980024c0b300744798009b
:1030d40014c0b300044f98000042eb00144f980052
:1030e400640247000400780085ff0700004278006e
:1030f400144f98001400200014079800c462800044
:1031040004007800f40f070069003700d302a90017
:103114000002eb00040f7800080037006402470047
:103124001e02420014427800b56280008440780098
:1031340005007800261307001e0fe8001e02780021
:10314400e50f5200f5ff340000000000b462800077
:10315400040078009d13070000027800e00f52007d
:10316400faff3200d302a80003003700b4628000e3
:103174000400780035130700b4628000040078006e
:103184006713070000027800e00f5200f7ff3a00cf
:103194000e0a900044429000e04f520044003a006e
:1031a4000002eb00040f7800c46280000400780081
:1031b4007c1007001e00370000000000b46280008d
:1031c400040078005613070000027800e00f520054
:1031d40010003a00c462800004007800591007000f
:1031e40000027800e00f5200f4ff32000a003700ba
:1031f400b4628000040078001413070000427800d1
:10320400ea0247009e824200844a78001e0fe800ca
:103214000100370000000000b46280000400780060
:103224003f13070000027800e00f5200f0ff3a005d
:103234001e027800e50f520006003c00c4628000c4
:10324400040078003f10070000027800e00f5200ed
:10325400d9ff3200c46280000400780039100700ee
:1032640000027800e00f5200040032001e029000b9
:103274000402e800140798000d0037006a024700b2
:10328400840078000e0890003bff070000027800dd
:10329400e00f5200030032000002eb001407980014
:1032a400030037001e0290000402e800140798008f
:1032b4001e029000e00f5200030032001e02900034
:1032c400e20f520091ff3400c462800004007800d1
:1032d400b10f07001e029000e00f520003003200fd
:1032e4000e0a90008002eb00150298000080fa009c
:1032f400000006008200fa00881f7800603f9800f2
:1033040061ff980072ff9800038798006efa90009e
:103314008482fb007efa90000482fb0084824200d7
:1033240014032000848f520001003400ffff370093
:1033340000c2eb004447980000c2eb0054479800d9
:103344006e3a900014427800644798007efa900028
:10335400634242007447980034c0b300044f98009d
:103364006efa9000144f98000002eb00040f7800ee
:10337400090037001e027800e60242001e027800af
:103384000e83900004024300144278008502470033
:10339400c44298001e0fe8007efa90000482fb00ed
:1033a4009e0f5200f3ff3c007efa90000482fb0063
:1033b400660442006402470004007800d0fe07005f
:1033c4000042780088024700c44298006e3a900098
:1033d400150020001502980014002000140798001e
:1033e400c4628000040078003b0f07005d003700d2
:1033f400d302a9000002eb00040f78000800370094
:10340400640247001e02420014427800b562800044
:1034140084407800050078006d1207001e0fe80054
:103424007efa90000482fb00670242009e0f520065
:10343400f3ff3c0000000000b46280000400780048
:10344400e212070000027800e00f5200faff320097
:10345400d302a80003003700b4628000040078009f
:103464007a120700b462800004007800ac120700ee
:1034740000027800e00f5200f7ff3a006e3a900025
:1034840044429000e04f520036003a000002eb0044
:10349400040f7800c462800004007800c10f0700a4
:1034a4000f003700b4628000040078009c1207000b
:1034b40000027800e00f520009003200b46280007c
:1034c400040078006112070000427800050420001f
:1034d4008e8242009e824200844a78001e0fe800d9
:1034e4001e027800e50f520006003c00c462800012
:1034f40004007800930f070000027800e00f5200e8
:10350400e8ff3200c4628000040078008d0f0700d9
:1035140000027800e00f5200040032001e02900006
:103524000402e800140798000e0037000404200089
:103534000e024200840078006e3890008efe070070
:1035440000027800e00f5200030032000002eb009a
:1035540014079800030037001e0290000402e800dc
:10356400140798001e029000e00f5200030032007e
:103574001e029000e20f52009dff3400c4628000de
:1035840004007800040f07001e029000e00f5200b0
:1035940007003a006e3a900014029000840278000a
:1035a4000500a0006e3a9000150298000400370050
:1035b4006e3a9000940290006e3a900015029800c2
:1035c4004f0478000080fa00000006004e00fa0064
:1035d4004027980021cf980032cf980063279800a5
:1035e4002eca90008482fb003eca90000482fb0035
:1035f4008482420014032000848f520001003400ae
:10360400ffff370000c2eb004447980000c2eb0004
:10361400544798004e229000144278006447980062
:1036240044c0b3007447980024c0b300044f98000a
:103634002eca9000144f98003ecb9000264f98005d
:1036440064024700040078002dfe07000042780061
:10365400344f98004e229000150020001502980067
:103664001400200014079800c4628000040078004d
:10367400990e07005b003700d302a9000002eb009b
:10368400040f780008003700640247001e0242005d
:1036940014427800b5628000844078000500780008
:1036a400cb1107001e0fe8001e027800e70f52003e
:1036b400f5ff340000000000b462800004007800cc
:1036c4004212070000027800e00f5200faff3200b5
:1036d400d302a80003003700b4628000040078001d
:1036e400da110700b4628000040078000c120700ad
:1036f40000027800e00f5200f7ff3a004e229000db
:1037040044429000e04f520036003a000002eb00c1
:10371400040f7800c462800004007800210f0700c1
:103724000e003700b462800004007800fc1107002a
:1037340000027800e00f520008003200b4628000fa
:1037440004007800c111070000427800ec02470031
:103754009e824200844a78001e0fe8003eca900010
:103764000482fb00660242009e0f520006003400f1
:10377400c462800004007800f20e070000027800a2
:10378400e00f5200e7ff3200c462800004007800ba
:10379400ec0e070000027800e00f52000400320033
:1037a4001e0290000402e800140798000d00370080
:1037b4006c024700840078004e209000eefd070064
:1037c40000027800e00f5200030032000002eb0018
:1037d40014079800030037001e0290000402e8005a
:1037e400140798001e029000e00f520003003200fc
:1037f4001e029000e20f52009fff3400c46280005a
:1038040004007800640e07001e029000e00f5200ce
:1038140011003a000002eb00040f780009003700a1
:103824001e027800ee229000848242001e0378007b
:103834006502430004024700444a9000844a780029
:103844001e0fe8003eca90000482fb009e0f520047
:10385400f3ff3c00030037004e2290008002eb008f
:10386400150298000080fa00000006002a00fa0001
:1038740034002000040f780084150700c2150700e7
:103884000200200003122400210020004000200038
:10389400f80b0700020020008324240050002000bd
:1038a400dc0c07000002eb00c408880003150700c5
:1038b40010c0b300ed0307001d12070022c0b300bf
:1038c40061ab200000c1b300f002070022c0b300c6
:1038d400c1be200000c1b300ec0207009860a8003c
:1038e400ee13070000027800e00f520002003200dd
:1038f40034002000b4558800b45580000500200031
:103904004600200007002000860f5200878f5a00cf
:10391400dc003e0004600100040037001b00370097
:1039240062003700a7003700b5003700b4558000a7
:103934009e0f52000e003200b0558000000f780038
:1039440060ab200061030700a9130700711507008d
:1039540017150700ac050700d4558000e10f52008d
:1039640003003a0050002000db0d07009780a800f8
:103974009416800068026200e00f520002003a00d0
:1039840014002000b4558800c10037002508070042
:1039940000027800e00f5200010034005f070700c6
:1039a400b45580009e0f520004003200b4558000cc
:1039b400040f780060ab20004403070094168000d5
:1039c40064026200e00f52000b0032001400200079
:1039d40014079800441f2000340f9800843e2000f0
:1039e400440f98000002eb00540f980024002000bc
:1039f400445f88000a0037000002eb0014079800b7
:103a0400449c2000340f9800843e2000440f98000a
:103a140084702000540f980064002000445f8800e4
:103a24009416800068026200e00f52001e0032000b
:103a340011e1a800d111070000000000ef110700f8
:103a440000027800e10f5200fcff3a003e089000ab
:103a5400ce0890005e0990002012070000000000cc
:103a64006402470004007800d4110700be099000e6
:103a74004e0a9000de0a90002e009000be009000d6
:103a84004e019000a6f7070000027800e00f5200f4
:103a9400f3ff32006a024700040078007d0007004b
:103aa40024002000b455880079003700b455800004
:103ab4009e0f520004003200b5558000050f7800b7
:103ac40060ab2000010307001e0b90000e0a90005b
:103ad400fc024700de0090006e019000fe019000a1
:103ae4000500780006000100c0bf20007c024700ea
:103af400060009003418780084aa200014427800d3
:103b0400e04f52000b0032000042eb00044078000a
:103b1400a8eab70004aa200014427800f04f52002b
:103b240004003a0014aa2000144278000482fb0026
:103b3400d4558800e45f8000050020004600200082
:103b440007002000860f5200878f5a001b003e009a
:103b5400046001001700370003003700020037003b
:103b64000200370001003700150037007c024700cf
:103b740004007800470007007c024700ea0247007f
:103b8400b41a7800a4127800e4824200640242006d
:103b9400b41a7800a4127800e4824200640242005d
:103ba400b41a7800a4127800e4824200640242004d
:103bb4000300370044002000b455880000000000d2
:103bc40033003700b45580009e0f520005003200c8
:103bd400b4558000040f780060ab2000bb020700de
:103be4006e1107009416800068026200e00f520014
:103bf40002003a000002eb00b455880024003700ac
:103c0400b45580009e0f520004003200b555800068
:103c1400050f780060ab2000ac020700fc034700ee
:103c2400de0090006e019000fe0190000e0a9000ec
:103c34009e0a90002e0b90000700780058000700a1
:103c44007c024700ea024700b41a7800a412780004
:103c5400e482420064024200b41a7800a41278009c
:103c6400e482420064024200b41a7800a41278008c
:103c7400e48242006402420024002000b45588001b
:103c84000300370044002000b45588000000000001
:103c940013ff37001200fa00881f78000004780030
:103ca4000002eb00740798000002eb00040f980078
:103cb40000ba2800e806070000000000e00507003d
:103cc40000027800e00f5200fcff3200e10507001b
:103cd40000027800040f78001e02780014027800b5
:103ce400a46088001e82e80014027800b460880092
:103cf40080ba2800d8060700a46080006a22b900b0
:103d040004027800e802420044b020000482420029
:103d140014037800b46080006c22b90004027800b7
:103d2400040243008e82e800b41a7800a4127800da
:103d3400e482420064024200b41a7800a4127800bb
:103d4400e482420064024200b41a7800a4127800ab
:103d5400e4824200640242000e82e8008802780095
:103d6400b41a7800a4127800e4824200640242008b
:103d7400b41a7800a4127800e4824200640242007b
:103d8400b41a7800a4127800e4824200640242006b
:103d9400080078004f0478000080fa000000060054
:103da4003800fa00889fbe008a1f7800000578005a
:103db40001179800121798002317980034179800d9
:103dc400451798005617980005000900001feb00de
:103dd400ce00b1000002eb00040f78000002eb00fb
:103de400140798000002eb002407980024bf200069
:103df400440798007a02470004007800ef10070097
:103e04004e1390003e129000ec0247008e1090007a
:103e14001e119000ae11900005007800060001000c
:103e2400c0588000d1588000e258800015f7070080
:103e34001e0a9000e20f5200c0003200e30f52004d
:103e44009c003200e10f5200ac003a00eb10070076
:103e540000027800e10f520094003900e30f520091
:103e640004003600a40fb100e40f52008f003e009e
:103e74003c003700c4558000e10f520007003a00af
:103e8400c0ba28007406070010bb28007206070099
:103e94000e0078007fff070031003700c455800012
:103ea400e00f520016003a00c40220000e02420045
:103eb4000400780077ff0700c40220000e024200cd
:103ec4008e027800b41a7800a4127800e4824200ca
:103ed40064024200b41a7800a4127800e48242001a
:103ee40064024200b41a7800a4127800e48242000a
:103ef4006402420030bb2800570607001800370050
:103f0400c4558000e20f520015003a00c40220009c
:103f14000e024200040078005eff0700c402200085
:103f24000e0242008e027800b41a7800a4127800bf
:103f3400e482420064024200b41a7800a4127800b9
:103f4400e482420064024200b41a7800a4127800a9
:103f5400e48242006402420030bb28003e060700af
:103f6400530037008510070000000000a31007006d
:103f740000027800e10f5200fcff3a005e0a900054
:103f8400cfa2de000400be00b4f207000004be00ad
:103f94007e0a9000cfa2de000400be00aff207004c
:103fa4000002be00c2372c0043ae23000400be0052
:103fb40002f307000002be000400be0023f2070063
:103fc4000002be0002002000832c24000400be0076
:103fd400faf207000002be000401be000800be00a1
:103fe400bcf107000002be000400be005ff207003f
:103ff4000002be0004027800540f98006e0a90007c
:10400400cfa2de000400be0094f207000004be004c
:104014007e0a9000cfa2de000400be008ff20700eb
:104024000002be00c2372c0043ae23000400be00d1
:10403400e2f207000002be000400be007cf30700a9
:104044000002be0002002000832c24000400be00f5
:10405400daf207000002be000401be000800be0040
:104064009cf107000002be000400be003ff20700fe
:104074000002be0004027800640f9800e40b2100e3
:10408400440798000002eb00340798005e0a900091
:10409400ee0a9000048fbe00fe0a900025079800e7
:1040a4001400200094608800010037000000000024
:1040b40023003700c4558000e00f52000f00320087
:1040c400040220000e0242008e027800b41a780026
:1040d400a4127800e482420064024200b41a780018
:1040e400a4127800e482420064024200b41a780008
:1040f400a4127800e4824200640242000402200018
:104104000e0242008e027800b41a7800a4127800dd
:10411400e482420064024200b41a7800a4127800d7
:10412400e482420064024200b41a7800a4127800c7
:10413400e4824200640242000100370000000000f3
:104144000e0278008a027800b41a7800a41278006b
:10415400e482420064024200b41a7800a412780097
:10416400e482420064024200b41a7800a412780087
:10417400e4824200640242000a0078004f0578009d
:104184004f04be000080fa00000006003600f8006c
:10419400809fbe00829fbe00849fbe00869fbe009b
:1041a400881f78003400f80000002000a001880077
:1041b4002000fa008780a900c4558000e00f520057
:1041c40090003a007202470004007800fd110700d5
:1041d400e4be2000f202470006000900351a780008
:1041e400745f8000e00f52009f003200805f800007
:1041f400915f8000a25f8000b35f8000c45f800095
:10420400d55f8000c910070000c429000100200008
:104214007013070002100700000278005460880041
:10422400845f8000955f800018c0b3000200260000
:10423400835324000400be00caf107000002780082
:10424400e00f520001003c000044eb00e04f54003a
:104254000d003a00a45f8000b55f800018c0b30071
:1042640002002c00334f24000400be00bdf10700ff
:1042740000027800e00f520001003c000044eb0013
:10428400e04f540002003200140020005460880003
:1042940054608000e00f520073003a00b45580006f
:1042a400e40f52007000320084c2200044079800da
:1042b400c4588000d5588000048fbe00e5588000a3
:1042c400250798000002eb00340798004e03900085
:1042d4003e029000f20247009e0078001e0190000a
:1042e400ae0190000500780006000100c4bf200064
:1042f400f202470006000900351a78004400200045
:10430400b4558800070037007202470004007800a3
:10431400ac110700e4be2000f202470006000900c9
:10432400351a7800845f8000955f800018c0b30060
:104334006011b8000400be0088f107000002780094
:10434400e00f5200010035000044eb00e04f540040
:104354000c003200845f8000955f800018c0b300b9
:104364000200200003f82b000400be007df10700ca
:1043740000027800e00f52000d003c000044eb0006
:104384000b003700845f8000955f800018c0b30085
:104394000200200003f823000400be006ff10700b0
:1043a40000027800e00f5200010035000044eb00e9
:1043b400e04f5400d4ff3a00805f8000915f80009a
:1043c400a25f8000b35f8000c45f8000d55f80007f
:1043d4002010070014002000c45588007202470012
:1043e40004007800750f07001e0a9000ae0a9000c2
:1043f4006460880075608800be0a9000856088004b
:1044040019003700c4558000e20f520016003a002c
:104414006c02470004007800680f070063608000a6
:1044240074608000856080006e009000fe00900043
:104434000e0990003df907000002780005192000dc
:10444400850f5200080034000002eb00c4558800b8
:1044540072024700040078005a11070072024700f4
:1044640004007800571107000080fa003400f900b6
:104474004f0478004f03be004f02be004f01be0040
:104484004f00be003600f900004006000600fa00a6
:10449400004f7800110798004247980084a9200033
:1044a40014427800e84f520042003e0084a92000e4
:1044b400144278000442e8000440780098eab70007
:1044c40084a92000144278000482fb006622b9000b
:1044d40084027800e4a02000048242001e4a78008e
:1044e40084a92000144278008482fb001e437800d3
:1044f4000682fb00f67f200006026200442bdd00ea
:104504000500240085024300f67f200006026200b5
:104514004222dd009503780036002e0006836300f6
:1045240004027300840a780084a9200014427800ed
:104534000482fb006622b9008402780004a12000f2
:10454400048242001e009000000a780084a9200022
:10455400144278000482fb006622b90084027800c9
:1045640024a1200004824200ce429000054a780033
:1045740084a92000144278008482fb004e429000fb
:104584006f426200442bdd00450024008502430095
:104594000482fb006f0262009503780006ff2f007f
:1045a4000683630004027300840a78000080fa0022
:1045b40000000600ffff37000600fa00004f7800f5
:1045c400110798004247980094a9200014427800eb
:1045d400ef4f520026003e0094a9200014427800b8
:1045e4000482fb006622b90084027800e4a3200060
:1045f400048242001e4a780094a9200014427800e4
:104604000482fb006622b9008402780004a420001e
:10461400048242001e009000000a780094a9200041
:10462400144278000482fb006622b90084027800f8
:1046340024a4200004824200ce429000054a78005f
:1046440094a92000144278009e4078000440780029
:104654001b01070094a92000144278000442e800da
:104664000440780099eab7000080fa0000000600d0
:10467400ffff37000000fa0014c0b30004407800c4
:104684009beab70009003700b4a92000144278005f
:104694000440780094010700b4a920001442780073
:1046a4000442e800044078009beab700b5a9200062
:1046b4009542780084a920001442780084cf5200e7
:1046c400f1ff36000080fa00000006000200fa0044
:1046d400000f780014c0b300044078009aeab700d1
:1046e40010003700a4a92000144278000482fb00c3
:1046f4006622b900040278008482e800e4a0200065
:1047040004824200140278009e0f52000c00320012
:10471400a4a92000144278000442e8000440780070
:104724009aeab700a5a920009542780084a9200040
:104734001442780084cf5200eaff360001003700ab
:1047440000000000a4a92000144278008482fb0029
:1047540084a92000144278000482fb000402e800cb
:10476400848f520001003a00ffff3700a4a9200003
:1047740014427800044078005b0107000080fa00ce
:10478400000006000800fa0030079800000000004e
:104794008421800068026200e00f5200fcff3a00ae
:1047a4003e02900014029000140798006400240054
:1047b400240798003e029000144278000482fb0013
:1047c400f57f200005026200f57f200005026200eb
:1047d4004222dd000600820035002e0085026300bf
:1047e4000482720004008a003e0290004442900059
:1047f4006f4262000482fb006f02620026008200a6
:1048040005ff2f00850263000482720024008a00e1
:104814000042eb00044f78000b0037001e029000aa
:1048240014427800ae029000844a78002e02900070
:104834000402e800240798001e0290000402e80025
:10484400140798001e4fe8003e0290004442900076
:104854009e4f5200f1ff3e003024a8003004a8000f
:104864003064a8000080fa00000006000200fa008c
:10487400004f7800400020003900070000122a0091
:10488400710020004d0007000408280084218800de
:10489400040828009421880004082800a421880022
:1048a40004082800b42188003420800004d0a0002b
:1048b40004e0a00004f0a10034208800352080002a
:1048c40004fe2f00048262000440a000342088000b
:1048d40004012100442088000004a80084882800e2
:1048e40004218800848828001421880084882800f2
:1048f40024218800848829003421880004002800a9
:10490400a42088000002eb00c42088000002eb0011
:10491400d420880084fe2f00842188009e407800e3
:10492400f0c0b300660007000004a9000c24a8002e
:1049340077010700910107000000eb000800070061
:104944000042eb000440780098eab7000042eb0014
:104954000440780099eab7000080fa0000000600dd
:104964000200fa00000f78000184a8001e027800fb
:1049740004427800674262000482fb00670262001e
:104984004822dd0006208000f58f2f008502630099
:1049940004827200042088000000000004208000cb
:1049a4004522de00674262000482fb009e0f520033
:1049b400faff3a000080fa00000006000600fa0040
:1049c4001007980021079800042080004522de008b
:1049d400674262000482fb00040f7800400020005c
:1049e400dfff07000164a800842080000460a000a9
:1049f4000470a00084208800ae029000840220008d
:104a040004aab900040378001e0290006022b900d1
:104a140004027800040343009e02900084022000f4
:104a2400042ab80005034300860278000401be008e
:104a340000a0250021262000fff007000002be0090
:104a4400044278000442e900f443b2008482fb008b
:104a5400f4032000048262008620800005fc2f00fd
:104a64008502630004827200842088009420800000
:104a74000430a0000440a0000450a000942088004a
:104a840012e4a800942080000480a0000490a100f7
:104a940004a0a00094208800942080000400a100b9
:104aa4000410a1000420a0009420880012c4a800cf
:104ab4001e007800aaff07000080fa00000006002c
:104ac4000400fa0020479800314798000420800031
:104ad4004522de00674262000482fb00040f780076
:104ae400400020009eff07000004a8002e42900012
:104af4000482fb00cfa2de00f600200007002000a5
:104b0400860f5200878f5a0071003e000460010036
:104b14000f00370014003700190037001e0037005b
:104b240023003700280037002d00370032003700fb
:104b3400370037003c00370041003700460037009b
:104b44004b00370050003700550037005a0037003b
:104b54003e4290000482fb004522dd0004228800ce
:104b64001404a8005b0037003e4290000482fb005e
:104b74004522dd00242288001424a80055003700b3
:104b84003e4290000482fb004522dd00442288005e
:104b94001444a8004f0037003e4290000482fb00fa
:104ba4004522dd00642288001464a800490037000f
:104bb4003e4290000482fb004522dd0084228800ee
:104bc4001484a800430037003e4290000482fb0096
:104bd4004522dd00a422880014a4a8003d0037006b
:104be4003e4290000482fb004522dd00c42288007e
:104bf40014c4a800370037003e4290000482fb0032
:104c04004522dd00e422880014e4a80031003700c6
:104c14003e4290000482fb004522dd00042388000c
:104c24001504a8002b0037003e4290000482fb00cc
:104c34004522dd00242388001524a8002500370020
:104c44003e4290000482fb004522dd00442388009c
:104c54001544a8001f0037003e4290000482fb0068
:104c64004522dd00642388001564a800190037007c
:104c74003e4290000482fb004522dd00842388002c
:104c84001584a800130037003e4290000482fb0004
:104c94004522dd00a423880015a4a8000d003700d8
:104ca4003e4290000482fb004522dd00c4238800bc
:104cb40015c4a800070037003e4290000482fb00a0
:104cc4004522dd00e423880015e4a8000100370034
:104cd400000000000004a9001e00780020ff070067
:104ce4000080fa00000006000800fa0060479800ff
:104cf4006e4290000482fb006622b9000402780030
:104d04008482e800e4a020000482420014027800b7
:104d1400140798006e4290000482fb004422dd00d8
:104d2400e6024200040024000482420024079800a2
:104d34000042eb00044f78000b0037001e02900085
:104d440014427800ae029000844a78002e0290004b
:104d54000402e800240798001e0290000402e80000
:104d6400140798001e4fe8006e4290000482fb0076
:104d74006622b90004027800e4024200e4a02000a4
:104d840004824200144278009e4f5200ebff3e0022
:104d94006e4290000482fb00cfa2de007600200069
:104da40007002000860f5200878f5a0055003e00ee
:104db40004600100070037000f00370018003700b7
:104dc4002000370029003700310037003a0037004f
:104dd4004200370000000000842180006802620065
:104de400e00f5200fcff3a003024a8003004a80071
:104df4003064a800440037000000000085218000d2
:104e04000480200004826200e00f5200fbff3a009d
:104e14003124a8003104a8003164a8003a00370006
:104e2400000000009421800068026200e00f52003c
:104e3400fcff3a003224a8003204a8003264a8001f
:104e4400310037000000000095218000048020001c
:104e540004826200e00f5200fbff3a003324a800f2
:104e64003304a8003364a8002700370000000000c2
:104e7400a421800068026200e00f5200fcff3a00a7
:104e84003424a8003404a8003464a8001e003700a9
:104e940000000000a521800004802000048262003c
:104ea400e00f5200fbff3a003524a8003504a800a7
:104eb4003564a8001400370000000000b42180000d
:104ec40068026200e00f5200fcff3a003624a8009a
:104ed4003604a8003664a8000b0037000000000068
:104ee400b52180000480200004826200e00f52009b
:104ef400fbff3a003724a8003704a8003764a80051
:104f040001003700000000000080fa0000000600e5
:104f14000000fa000002eb00041f880081c3a9000e
:104f240081a3a8008183a9008163a900041c8000d7
:104f34000440a1000450a000041c8800041c80004c
:104f44000400a1000410a100041c880064042000d3
:104f5400141c880024442000441c88007400200091
:104f6400541c88000002eb00241c880081e3a80084
:104f74009480a8000080fa00000006000000fa00f7
:104f84000002eb00141f88008dc3a9008da3a900a3
:104f94008d83a9008d63a900641c80000440a100d6
:104fa4000450a000641c8800641c80000400a1005c
:104fb4000410a100641c880024022000741c8800d2
:104fc40004442000a41c880074002000b41c880041
:104fd4000002eb00841c88008de3a80095c0a800a3
:104fe4000080fa00000006000000fa008480a90096
:104ff4000080fa00004006000000fa0085c0a90005
:105004000080fa00004006000000fa008100200041
:10501400500020009b020700910020003000200077
:10502400f60307008000eb0002002000137e24003a
:1050340020002000b00a070087e0a900200020001b
:10504400190c070020002000280c0700d402a80037
:105054000000000004408000e10f5200fdff3a0010
:10506400b0ba2000fc01070024bb20000400780033
:10507400f901070044bc200004007800f601070091
:1050840064bd200004007800f30107000000000064
:1050940004408000e30f5200fdff3a0000bf2800e7
:1050a400ed0107000080fa00000006003600f80059
:1050b400809fbe00829fbe00849fbe00869fbe006c
:1050c4003400f80000002000a00188000000fa006d
:1050d40087e0a90013003700955e8000c48f20008c
:1050e40004824200144278008440780020002000aa
:1050f400370b0700945e80000402e800945e880089
:10510400955e8000940f2000848f520002003400ca
:105114000002eb00945e8800845e80000402e800d4
:10512400845e8800855e8000940f2000848f520086
:1051340005003c00200020008c0b070000027800d2
:10514400e00f5200e4ff3a000080fa003400f90056
:105154004f03be004f02be004f01be004f00be0011
:105164003600f900004006003600f800809fbe00bb
:10517400829fbe00849fbe00869fbe000200fa008c
:1051840087c0a90012003700f45d80000402e80023
:10519400f45d8800165e8000b4118000044278003b
:1051a4002580200085024300844a7800145e800034
:1051b4000402e800145e8800155e8000a40f20003d
:1051c400848f520002003a000002eb00145e880053
:1051d4009411800061026200e00f5200eaff3a007d
:1051e400145e80008402e9002480200004824200ce
:1051f40014427800ea4f520046003a00044080000e
:10520400e30f520043003200f65d8000155e80001b
:1052140024802000060178008500780004007800ce
:10522400e600070000027800040f780004408000c4
:10523400050020003600200007002000860f5200e1
:10524400878f5a0031003e000460010003003700dc
:105254000c0037002b0037002b003700140020000f
:10526400044088001e027800e10f52000200320060
:105274000002eb00044088000002eb00f45d8800ab
:10528400230037001e0278000500200036002000ad
:1052940007002000860f5200878f5a0015003e0039
:1052a40004600100030037000800370004003700e1
:1052b400090037000002eb00f45d8800100037009d
:1052c4000002eb00f45d88000d0037000002eb00e3
:1052d400f45d88000a0037000002eb00f45d8800ea
:1052e400145e8000045e88003400200004408800be
:1052f400030037000002eb00f45d880000000000aa
:1053040003003700020037000100370000000000ee
:105314001900370004408000e30f520016003a00e1
:10532400f45d80000403e900145e80008402e90057
:10533400248020000482420014427800659f2000eb
:1053440085024300844a7800f45d80008402e90009
:10535400649f2000048242009442780004c4b30095
:1053640084cf520004003a00609f20000900070027
:105374000002eb00f45d88000080fa004f03be00d9
:105384004f02be004f01be004f00be003600f900c0
:10539400004006000400fa00100798001e02900066
:1053a4009442780044c5b30084cf520005003a000b
:1053b4000002eb00040f78001e0090000f000700ad
:1053c4000c0037001e0290009442780004c5b3001c
:1053d40084cf520005003a0014002000040f780026
:1053e4001e00900024000700020037002400200063
:1053f400040f78000080fa00000006000200fa00a2
:10540400000f78001e02e800144278000402fb003a
:105414000403b100545088009e0278006382420065
:10542400144278000402fb000403b10064508800b5
:1054340014002000345f88000080fa000000060099
:105444000000fa00345f8000040078000080fa0055
:10545400000006000000fa0014002000345f8800f9
:105464000002eb00345f8800a4a020000400780050
:105474000080fa00000006000200fa00000f780025
:105484009e02780063824200144278008402fb008a
:105494004406200004aab900040378001e82e80030
:1054a400144278000402fb0005fd2f0084824200b0
:1054b400843e200004aab900040278008402430058
:1054c40004d42e00048342009e02780064824200c9
:1054d400144278000402fb006a22b9000402780036
:1054e400041eb100840243001e03780065024300d9
:1054f400144278000402fb000403b1000482420059
:10550400cfa2de000400be0054ed07000002be007e
:10551400d45e8800e55e88009e02780068824200be
:10552400144278008402fb004406200004aab90057
:10553400040378009e0278006782420014427800d7
:105544000402fb0005fd2f0084824200843e2000fb
:1055540004aab900040278008402430004d42e0093
:10556400048342009e02780069824200144278005b
:105574000402fb006a22b90004027800041eb10090
:10558400840243001e0378006a0243001442780038
:105594000402fb000403b10004824200cfa2de0037
:1055a4000400be002ded07000002be00f45e88007a
:1055b400055f88000080fa00000006000800fa0079
:1055c4001007980021079800320798004400200033
:1055d400040f7800ae0290003e0290000482520054
:1055e4009e02900004824200140798001e0290005c
:1055f4009442780034c4b30084cf52001d003a00b2
:105604001e0290000402e80094427800d4c4b3005f
:1056140084cf520009003a001e0290000482e80080
:105624009442780044c4b30084cf520011003a007d
:1056340014002000040f78000e0037001e029000b2
:105644000402e80094427800f4c6b30084cf520008
:1056540008003a001e0290000482e8009442780098
:10566400e4c6b30084cf520002003a0034002000a4
:10567400040f78001e0290009442780014c4b30012
:1056840084cf52000e003a001e0290000402e8008b
:1056940094427800f4c4b30084cf520008003a0066
:1056a4001e0290000482e80094427800b4c4b3005f
:1056b40084cf520002003a000002eb00040f78008d
:1056c4001e0290009442780024c5b30084cf520097
:1056d4000e003a001e0290000402e8009442780092
:1056e40054c6b30084cf520008003a001e02900052
:1056f4000482e8009442780024c6b30084cf5200a8
:1057040002003a0024002000040f78001e027800f2
:10571400040078000080fa00000006000400fa008b
:1057240014002000140798001a00370020002000fd
:105734003b0a0700f45d8000e00f520013003400c0
:10574400f45d80000402e900f45d8800055e8000d9
:10575400248020000482420014427800044f780020
:10576400045e80000402e800045e8800055e800098
:10577400940f2000848f5200020034000002eb00da
:10578400045e88000002eb0014079800200020004b
:10579400450a07001e029000e00f5200e3ff3a00a2
:1057a4001e427800044078000080fa0000000600e1
:1057b4000400fa002047980014002000040f780029
:1057c4001a00370020002000260a0700845e8000ab
:1057d400e00f520013003400845e80000402e900ec
:1057e400845e8800a65e80002e429000c58f200053
:1057f40085024300844a7800a45e80000402e80025
:10580400a45e8800a55e8000940f2000848f52005f
:10581400020034000002eb00a45e88000002eb00ea
:10582400040f780020002000300a07001e027800d0
:10583400e00f5200e3ff3a0095118000042020009d
:1058440004826200e00f520001003a0087e0a800e1
:105854000080fa00000006000400fa001007980017
:105864000002eb00040f7800070037001e027800e6
:105874009e029000048242001442780004407800a2
:10588400cbff07001e0fe8001e0278009e02900066
:105894000482420014427800e04f5200f3ff3a00c1
:1058a400a4ba20001442780004407800c0ff070026
:1058b4000080fa00000006000400fa000002eb0079
:1058c400040f78000600370094ff070000427800b8
:1058d4008e82e8009e824200844a78001e0fe8000f
:1058e4001e027800e10f5200f7ff34001e02900000
:1058f400040078000080fa00000006000200fa00ac
:10590400000f78001e0278000442780004407800fa
:10591400a7ff07001e02780048a2de0004427800b8
:1059240004407800a2ff07000080fa00000006008f
:105934000600fa000002eb00040f780006003700ae
:1059440076ff0700004278008e82e8009e824200c3
:10595400844a78001e0fe8001e027800e30f52000c
:10596400f7ff34001e029000ae0290000400be0057
:105974000080fa00000006000a00fa0030079800d0
:10598400410798003e029000ce0290001407980050
:10599400250798000002eb00040f7800060037008a
:1059a4000e82e8001e02420014427800044078008f
:1059b4007fff07001e0fe8001e027800e30f52006d
:1059c400f7ff34000080fa00000006000000fa002f
:1059d4000000000004408000e10f5200fdff3a0087
:1059e400b0ba20009cff070024bb2000040078000c
:1059f40099ff070044bc20000400780096ff0700cc
:105a040064bd20000400780093ff0700000000003c
:105a140004408000e30f5200fdff3a000080fa00ca
:105a2400000006000000fa00f45d80000400780025
:105a34000080fa00000006000000fa00000378006d
:105a4400a4bd200086027800b41a7800a41278005d
:105a5400e482420064024200b41a7800a41278007e
:105a6400e482420064024200b41a7800a41278006e
:105a7400e482420064024200060078000080fa00da
:105a8400000006000400fa00000f780011079800d7
:105a94001e027800e00f5200030032001e0278005c
:105aa400fb0f5200020036001400200050013700a2
:105ab4001e029000cfa2de00960120000700200005
